{
  "contractName": "WVWDistribution",
  "abi": [
    {
      "inputs": [
        {
          "internalType": "address",
          "name": "_walletTeam",
          "type": "address"
        },
        {
          "internalType": "address",
          "name": "_walletPartners",
          "type": "address"
        },
        {
          "internalType": "address",
          "name": "_walletGiveways",
          "type": "address"
        },
        {
          "internalType": "address",
          "name": "_walletLiquidityExchange",
          "type": "address"
        },
        {
          "internalType": "address",
          "name": "_walletLaunch",
          "type": "address"
        },
        {
          "internalType": "address",
          "name": "_walletPreSale",
          "type": "address"
        },
        {
          "internalType": "address",
          "name": "_walletFounder",
          "type": "address"
        }
      ],
      "stateMutability": "nonpayable",
      "type": "constructor"
    },
    {
      "anonymous": false,
      "inputs": [
        {
          "indexed": true,
          "internalType": "bytes32",
          "name": "role",
          "type": "bytes32"
        },
        {
          "indexed": true,
          "internalType": "bytes32",
          "name": "previousAdminRole",
          "type": "bytes32"
        },
        {
          "indexed": true,
          "internalType": "bytes32",
          "name": "newAdminRole",
          "type": "bytes32"
        }
      ],
      "name": "RoleAdminChanged",
      "type": "event"
    },
    {
      "anonymous": false,
      "inputs": [
        {
          "indexed": true,
          "internalType": "bytes32",
          "name": "role",
          "type": "bytes32"
        },
        {
          "indexed": true,
          "internalType": "address",
          "name": "account",
          "type": "address"
        },
        {
          "indexed": true,
          "internalType": "address",
          "name": "sender",
          "type": "address"
        }
      ],
      "name": "RoleGranted",
      "type": "event"
    },
    {
      "anonymous": false,
      "inputs": [
        {
          "indexed": true,
          "internalType": "bytes32",
          "name": "role",
          "type": "bytes32"
        },
        {
          "indexed": true,
          "internalType": "address",
          "name": "account",
          "type": "address"
        },
        {
          "indexed": true,
          "internalType": "address",
          "name": "sender",
          "type": "address"
        }
      ],
      "name": "RoleRevoked",
      "type": "event"
    },
    {
      "inputs": [],
      "name": "DEFAULT_ADMIN_ROLE",
      "outputs": [
        {
          "internalType": "bytes32",
          "name": "",
          "type": "bytes32"
        }
      ],
      "stateMutability": "view",
      "type": "function",
      "constant": true
    },
    {
      "inputs": [
        {
          "internalType": "bytes32",
          "name": "role",
          "type": "bytes32"
        }
      ],
      "name": "getRoleAdmin",
      "outputs": [
        {
          "internalType": "bytes32",
          "name": "",
          "type": "bytes32"
        }
      ],
      "stateMutability": "view",
      "type": "function",
      "constant": true
    },
    {
      "inputs": [
        {
          "internalType": "bytes32",
          "name": "role",
          "type": "bytes32"
        },
        {
          "internalType": "address",
          "name": "account",
          "type": "address"
        }
      ],
      "name": "grantRole",
      "outputs": [],
      "stateMutability": "nonpayable",
      "type": "function"
    },
    {
      "inputs": [
        {
          "internalType": "bytes32",
          "name": "role",
          "type": "bytes32"
        },
        {
          "internalType": "address",
          "name": "account",
          "type": "address"
        }
      ],
      "name": "hasRole",
      "outputs": [
        {
          "internalType": "bool",
          "name": "",
          "type": "bool"
        }
      ],
      "stateMutability": "view",
      "type": "function",
      "constant": true
    },
    {
      "inputs": [
        {
          "internalType": "bytes32",
          "name": "role",
          "type": "bytes32"
        },
        {
          "internalType": "address",
          "name": "account",
          "type": "address"
        }
      ],
      "name": "renounceRole",
      "outputs": [],
      "stateMutability": "nonpayable",
      "type": "function"
    },
    {
      "inputs": [
        {
          "internalType": "bytes32",
          "name": "role",
          "type": "bytes32"
        },
        {
          "internalType": "address",
          "name": "account",
          "type": "address"
        }
      ],
      "name": "revokeRole",
      "outputs": [],
      "stateMutability": "nonpayable",
      "type": "function"
    },
    {
      "inputs": [],
      "name": "startDateDistribution",
      "outputs": [
        {
          "internalType": "uint256",
          "name": "",
          "type": "uint256"
        }
      ],
      "stateMutability": "view",
      "type": "function",
      "constant": true
    },
    {
      "inputs": [
        {
          "internalType": "bytes4",
          "name": "interfaceId",
          "type": "bytes4"
        }
      ],
      "name": "supportsInterface",
      "outputs": [
        {
          "internalType": "bool",
          "name": "",
          "type": "bool"
        }
      ],
      "stateMutability": "view",
      "type": "function",
      "constant": true
    },
    {
      "inputs": [],
      "name": "token",
      "outputs": [
        {
          "internalType": "contract IERC20",
          "name": "",
          "type": "address"
        }
      ],
      "stateMutability": "view",
      "type": "function",
      "constant": true
    },
    {
      "inputs": [
        {
          "internalType": "address",
          "name": "_token",
          "type": "address"
        }
      ],
      "name": "configureTokenAddress",
      "outputs": [],
      "stateMutability": "nonpayable",
      "type": "function"
    },
    {
      "inputs": [],
      "name": "verifyTimeLock",
      "outputs": [
        {
          "internalType": "bool",
          "name": "availableClaim",
          "type": "bool"
        }
      ],
      "stateMutability": "view",
      "type": "function",
      "constant": true
    },
    {
      "inputs": [],
      "name": "claim",
      "outputs": [],
      "stateMutability": "nonpayable",
      "type": "function"
    },
    {
      "inputs": [],
      "name": "getTimelocks",
      "outputs": [
        {
          "components": [
            {
              "internalType": "address",
              "name": "wallet",
              "type": "address"
            },
            {
              "internalType": "uint256",
              "name": "lastClaim",
              "type": "uint256"
            },
            {
              "internalType": "uint256",
              "name": "totalAmount",
              "type": "uint256"
            },
            {
              "internalType": "uint256",
              "name": "timeLock",
              "type": "uint256"
            },
            {
              "internalType": "uint256",
              "name": "amountPerClaim",
              "type": "uint256"
            },
            {
              "internalType": "uint256",
              "name": "claimed",
              "type": "uint256"
            }
          ],
          "internalType": "struct WVWDistribution.DistributionItem[]",
          "name": "_timelocks",
          "type": "tuple[]"
        }
      ],
      "stateMutability": "view",
      "type": "function",
      "constant": true
    }
  ],
  "bytecode": "0x6080604052601e600455603c6005553480156200001b57600080fd5b5060405162002465380380620024658339818101604052810190620000419190620008a3565b426002819055506000600360006101000a81548160ff021916908315150217905550620000786000801b336200025c60201b60201c565b86600660006101000a81548173ffffffffffffffffffffffffffffffffffffffff021916908373ffffffffffffffffffffffffffffffffffffffff16021790555085600760006101000a81548173ffffffffffffffffffffffffffffffffffffffff021916908373ffffffffffffffffffffffffffffffffffffffff16021790555084600860006101000a81548173ffffffffffffffffffffffffffffffffffffffff021916908373ffffffffffffffffffffffffffffffffffffffff16021790555083600960006101000a81548173ffffffffffffffffffffffffffffffffffffffff021916908373ffffffffffffffffffffffffffffffffffffffff16021790555082600a60006101000a81548173ffffffffffffffffffffffffffffffffffffffff021916908373ffffffffffffffffffffffffffffffffffffffff16021790555081600b60006101000a81548173ffffffffffffffffffffffffffffffffffffffff021916908373ffffffffffffffffffffffffffffffffffffffff16021790555080600c60006101000a81548173ffffffffffffffffffffffffffffffffffffffff021916908373ffffffffffffffffffffffffffffffffffffffff1602179055506200024f6200034d60201b60201c565b5050505050505062000956565b6200026e8282620007c760201b60201c565b6200034957600160008084815260200190815260200160002060000160008373ffffffffffffffffffffffffffffffffffffffff1673ffffffffffffffffffffffffffffffffffffffff16815260200190815260200160002060006101000a81548160ff021916908315150217905550620002ee6200083160201b60201c565b73ffffffffffffffffffffffffffffffffffffffff168173ffffffffffffffffffffffffffffffffffffffff16837f2f8788117e7eff1d82e926ec794901d17c78024a50270940304540a733656f0d60405160405180910390a45b5050565b600d6040518060c00160405280600660009054906101000a900473ffffffffffffffffffffffffffffffffffffffff1673ffffffffffffffffffffffffffffffffffffffff16815260200160025481526020016a084595161401484a000000815260200160045481526020016207a12081526020016000815250908060018154018082558091505060019003906000526020600020906006020160009091909190915060008201518160000160006101000a81548173ffffffffffffffffffffffffffffffffffffffff021916908373ffffffffffffffffffffffffffffffffffffffff1602179055506020820151816001015560408201518160020155606082015181600301556080820151816004015560a082015181600501555050600d6040518060c00160405280600760009054906101000a900473ffffffffffffffffffffffffffffffffffffffff1673ffffffffffffffffffffffffffffffffffffffff16815260200160025481526020016a084595161401484a000000815260200160045481526020016207a12081526020016000815250908060018154018082558091505060019003906000526020600020906006020160009091909190915060008201518160000160006101000a81548173ffffffffffffffffffffffffffffffffffffffff021916908373ffffffffffffffffffffffffffffffffffffffff1602179055506020820151816001015560408201518160020155606082015181600301556080820151816004015560a082015181600501555050600d6040518060c00160405280600860009054906101000a900473ffffffffffffffffffffffffffffffffffffffff1673ffffffffffffffffffffffffffffffffffffffff16815260200160025481526020016a084595161401484a000000815260200160045481526020016207a12081526020016000815250908060018154018082558091505060019003906000526020600020906006020160009091909190915060008201518160000160006101000a81548173ffffffffffffffffffffffffffffffffffffffff021916908373ffffffffffffffffffffffffffffffffffffffff1602179055506020820151816001015560408201518160020155606082015181600301556080820151816004015560a082015181600501555050600d6040518060c00160405280600960009054906101000a900473ffffffffffffffffffffffffffffffffffffffff1673ffffffffffffffffffffffffffffffffffffffff16815260200160025481526020016a108b2a2c2802909400000081526020016005548152602001624c4b4081526020016000815250908060018154018082558091505060019003906000526020600020906006020160009091909190915060008201518160000160006101000a81548173ffffffffffffffffffffffffffffffffffffffff021916908373ffffffffffffffffffffffffffffffffffffffff1602179055506020820151816001015560408201518160020155606082015181600301556080820151816004015560a082015181600501555050565b600080600084815260200190815260200160002060000160008373ffffffffffffffffffffffffffffffffffffffff1673ffffffffffffffffffffffffffffffffffffffff16815260200190815260200160002060009054906101000a900460ff16905092915050565b600033905090565b600080fd5b600073ffffffffffffffffffffffffffffffffffffffff82169050919050565b60006200086b826200083e565b9050919050565b6200087d816200085e565b81146200088957600080fd5b50565b6000815190506200089d8162000872565b92915050565b600080600080600080600060e0888a031215620008c557620008c462000839565b5b6000620008d58a828b016200088c565b9750506020620008e88a828b016200088c565b9650506040620008fb8a828b016200088c565b95505060606200090e8a828b016200088c565b9450506080620009218a828b016200088c565b93505060a0620009348a828b016200088c565b92505060c0620009478a828b016200088c565b91505092959891949750929550565b611aff80620009666000396000f3fe608060405234801561001057600080fd5b50600436106100cf5760003560e01c806391d148541161008c578063c4ee7c6511610066578063c4ee7c6514610200578063d547741f1461021c578063fc0c546a14610238578063fc1f66a714610256576100cf565b806391d1485414610194578063a217fddf146101c4578063a34d2224146101e2576100cf565b806301ffc9a7146100d4578063248a9ca3146101045780632f2ff15d1461013457806336568abe146101505780634e71d92d1461016c57806390380dcf14610176575b600080fd5b6100ee60048036038101906100e9919061116b565b610274565b6040516100fb91906111b3565b60405180910390f35b61011e60048036038101906101199190611204565b6102ee565b60405161012b9190611240565b60405180910390f35b61014e600480360381019061014991906112b9565b61030d565b005b61016a600480360381019061016591906112b9565b61032e565b005b6101746103b1565b005b61017e610649565b60405161018b919061144b565b60405180910390f35b6101ae60048036038101906101a991906112b9565b610730565b6040516101bb91906111b3565b60405180910390f35b6101cc61079a565b6040516101d99190611240565b60405180910390f35b6101ea6107a1565b6040516101f7919061147c565b60405180910390f35b61021a60048036038101906102159190611497565b6107a7565b005b610236600480360381019061023191906112b9565b61089f565b005b6102406108c0565b60405161024d9190611523565b60405180910390f35b61025e6108e6565b60405161026b91906111b3565b60405180910390f35b60007f7965db0b000000000000000000000000000000000000000000000000000000007bffffffffffffffffffffffffffffffffffffffffffffffffffffffff1916827bffffffffffffffffffffffffffffffffffffffffffffffffffffffff191614806102e757506102e6826109d0565b5b9050919050565b6000806000838152602001908152602001600020600101549050919050565b610316826102ee565b61031f81610a3a565b6103298383610a4e565b505050565b610336610b2e565b73ffffffffffffffffffffffffffffffffffffffff168173ffffffffffffffffffffffffffffffffffffffff16146103a3576040517f08c379a000000000000000000000000000000000000000000000000000000000815260040161039a906115c1565b60405180910390fd5b6103ad8282610b36565b5050565b6000801b6103be81610a3a565b60005b600d8054905081101561064557600d81815481106103e2576103e16115e1565b5b906000526020600020906006020160030154600d8281548110610408576104076115e1565b5b906000526020600020906006020160010154610424919061163f565b421061063257600d818154811061043e5761043d6115e1565b5b906000526020600020906006020160020154600d8281548110610464576104636115e1565b5b906000526020600020906006020160050154101561063157600d81815481106104905761048f6115e1565b5b906000526020600020906006020160040154600d82815481106104b6576104b56115e1565b5b9060005260206000209060060201600501546104d2919061163f565b600d82815481106104e6576104e56115e1565b5b90600052602060002090600602016005018190555042600d82815481106105105761050f6115e1565b5b906000526020600020906006020160010181905550600160009054906101000a900473ffffffffffffffffffffffffffffffffffffffff1673ffffffffffffffffffffffffffffffffffffffff1663a9059cbb600d8381548110610577576105766115e1565b5b906000526020600020906006020160000160009054906101000a900473ffffffffffffffffffffffffffffffffffffffff16600d84815481106105bd576105bc6115e1565b5b9060005260206000209060060201600401546040518363ffffffff1660e01b81526004016105ec929190611682565b6020604051808303816000875af115801561060b573d6000803e3d6000fd5b505050506040513d601f19601f8201168201806040525081019061062f91906116d7565b505b5b808061063d90611704565b9150506103c1565b5050565b6060600d805480602002602001604051908101604052809291908181526020016000905b8282101561072757838290600052602060002090600602016040518060c00160405290816000820160009054906101000a900473ffffffffffffffffffffffffffffffffffffffff1673ffffffffffffffffffffffffffffffffffffffff1673ffffffffffffffffffffffffffffffffffffffff168152602001600182015481526020016002820154815260200160038201548152602001600482015481526020016005820154815250508152602001906001019061066d565b50505050905090565b600080600084815260200190815260200160002060000160008373ffffffffffffffffffffffffffffffffffffffff1673ffffffffffffffffffffffffffffffffffffffff16815260200190815260200160002060009054906101000a900460ff16905092915050565b6000801b81565b60025481565b6000801b6107b481610a3a565b600360009054906101000a900460ff16156107ce57600080fd5b81600160006101000a81548173ffffffffffffffffffffffffffffffffffffffff021916908373ffffffffffffffffffffffffffffffffffffffff1602179055506001600360006101000a81548160ff02191690831515021790555061089b600a60009054906101000a900473ffffffffffffffffffffffffffffffffffffffff16600b60009054906101000a900473ffffffffffffffffffffffffffffffffffffffff16600c60009054906101000a900473ffffffffffffffffffffffffffffffffffffffff16610c17565b5050565b6108a8826102ee565b6108b181610a3a565b6108bb8383610b36565b505050565b600160009054906101000a900473ffffffffffffffffffffffffffffffffffffffff1681565b600080600090505b600d805490508110156109cb57600d818154811061090f5761090e6115e1565b5b906000526020600020906006020160020154600d8281548110610935576109346115e1565b5b9060005260206000209060060201600501541080156109a95750600d8181548110610963576109626115e1565b5b906000526020600020906006020160030154600d8281548110610989576109886115e1565b5b9060005260206000209060060201600101546109a5919061163f565b4210155b156109b85760019150506109cd565b80806109c390611704565b9150506108ee565b505b90565b60007f01ffc9a7000000000000000000000000000000000000000000000000000000007bffffffffffffffffffffffffffffffffffffffffffffffffffffffff1916827bffffffffffffffffffffffffffffffffffffffffffffffffffffffff1916149050919050565b610a4b81610a46610b2e565b610e20565b50565b610a588282610730565b610b2a57600160008084815260200190815260200160002060000160008373ffffffffffffffffffffffffffffffffffffffff1673ffffffffffffffffffffffffffffffffffffffff16815260200190815260200160002060006101000a81548160ff021916908315150217905550610acf610b2e565b73ffffffffffffffffffffffffffffffffffffffff168173ffffffffffffffffffffffffffffffffffffffff16837f2f8788117e7eff1d82e926ec794901d17c78024a50270940304540a733656f0d60405160405180910390a45b5050565b600033905090565b610b408282610730565b15610c1357600080600084815260200190815260200160002060000160008373ffffffffffffffffffffffffffffffffffffffff1673ffffffffffffffffffffffffffffffffffffffff16815260200190815260200160002060006101000a81548160ff021916908315150217905550610bb8610b2e565b73ffffffffffffffffffffffffffffffffffffffff168173ffffffffffffffffffffffffffffffffffffffff16837ff6391f5c32d9c69d2a47ea670b442974b53935d1edc7fd64eb21e047a839171b60405160405180910390a45b5050565b600160009054906101000a900473ffffffffffffffffffffffffffffffffffffffff1673ffffffffffffffffffffffffffffffffffffffff1663a9059cbb846a18d0bf423c03d8de0000006040518363ffffffff1660e01b8152600401610c7f929190611787565b6020604051808303816000875af1158015610c9e573d6000803e3d6000fd5b505050506040513d601f19601f82011682018060405250810190610cc291906116d7565b50600160009054906101000a900473ffffffffffffffffffffffffffffffffffffffff1673ffffffffffffffffffffffffffffffffffffffff1663a9059cbb836a084595161401484a0000006040518363ffffffff1660e01b8152600401610d2b9291906117eb565b6020604051808303816000875af1158015610d4a573d6000803e3d6000fd5b505050506040513d601f19601f82011682018060405250810190610d6e91906116d7565b50600160009054906101000a900473ffffffffffffffffffffffffffffffffffffffff1673ffffffffffffffffffffffffffffffffffffffff1663a9059cbb826a084595161401484a0000006040518363ffffffff1660e01b8152600401610dd79291906117eb565b6020604051808303816000875af1158015610df6573d6000803e3d6000fd5b505050506040513d601f19601f82011682018060405250810190610e1a91906116d7565b50505050565b610e2a8282610730565b610ea157610e3781610ea5565b610e458360001c6020610ed2565b604051602001610e5692919061191d565b6040516020818303038152906040526040517f08c379a0000000000000000000000000000000000000000000000000000000008152600401610e9891906119a1565b60405180910390fd5b5050565b6060610ecb8273ffffffffffffffffffffffffffffffffffffffff16601460ff16610ed2565b9050919050565b606060006002836002610ee591906119c3565b610eef919061163f565b67ffffffffffffffff811115610f0857610f07611a05565b5b6040519080825280601f01601f191660200182016040528015610f3a5781602001600182028036833780820191505090505b5090507f300000000000000000000000000000000000000000000000000000000000000081600081518110610f7257610f716115e1565b5b60200101907effffffffffffffffffffffffffffffffffffffffffffffffffffffffffffff1916908160001a9053507f780000000000000000000000000000000000000000000000000000000000000081600181518110610fd657610fd56115e1565b5b60200101907effffffffffffffffffffffffffffffffffffffffffffffffffffffffffffff1916908160001a9053506000600184600261101691906119c3565b611020919061163f565b90505b60018111156110c0577f3031323334353637383961626364656600000000000000000000000000000000600f861660108110611062576110616115e1565b5b1a60f81b828281518110611079576110786115e1565b5b60200101907effffffffffffffffffffffffffffffffffffffffffffffffffffffffffffff1916908160001a905350600485901c9450806110b990611a34565b9050611023565b5060008414611104576040517f08c379a00000000000000000000000000000000000000000000000000000000081526004016110fb90611aa9565b60405180910390fd5b8091505092915050565b600080fd5b60007fffffffff0000000000000000000000000000000000000000000000000000000082169050919050565b61114881611113565b811461115357600080fd5b50565b6000813590506111658161113f565b92915050565b6000602082840312156111815761118061110e565b5b600061118f84828501611156565b91505092915050565b60008115159050919050565b6111ad81611198565b82525050565b60006020820190506111c860008301846111a4565b92915050565b6000819050919050565b6111e1816111ce565b81146111ec57600080fd5b50565b6000813590506111fe816111d8565b92915050565b60006020828403121561121a5761121961110e565b5b6000611228848285016111ef565b91505092915050565b61123a816111ce565b82525050565b60006020820190506112556000830184611231565b92915050565b600073ffffffffffffffffffffffffffffffffffffffff82169050919050565b60006112868261125b565b9050919050565b6112968161127b565b81146112a157600080fd5b50565b6000813590506112b38161128d565b92915050565b600080604083850312156112d0576112cf61110e565b5b60006112de858286016111ef565b92505060206112ef858286016112a4565b9150509250929050565b600081519050919050565b600082825260208201905092915050565b6000819050602082019050919050565b61132e8161127b565b82525050565b6000819050919050565b61134781611334565b82525050565b60c0820160008201516113636000850182611325565b506020820151611376602085018261133e565b506040820151611389604085018261133e565b50606082015161139c606085018261133e565b5060808201516113af608085018261133e565b5060a08201516113c260a085018261133e565b50505050565b60006113d4838361134d565b60c08301905092915050565b6000602082019050919050565b60006113f8826112f9565b6114028185611304565b935061140d83611315565b8060005b8381101561143e57815161142588826113c8565b9750611430836113e0565b925050600181019050611411565b5085935050505092915050565b6000602082019050818103600083015261146581846113ed565b905092915050565b61147681611334565b82525050565b6000602082019050611491600083018461146d565b92915050565b6000602082840312156114ad576114ac61110e565b5b60006114bb848285016112a4565b91505092915050565b6000819050919050565b60006114e96114e46114df8461125b565b6114c4565b61125b565b9050919050565b60006114fb826114ce565b9050919050565b600061150d826114f0565b9050919050565b61151d81611502565b82525050565b60006020820190506115386000830184611514565b92915050565b600082825260208201905092915050565b7f416363657373436f6e74726f6c3a2063616e206f6e6c792072656e6f756e636560008201527f20726f6c657320666f722073656c660000000000000000000000000000000000602082015250565b60006115ab602f8361153e565b91506115b68261154f565b604082019050919050565b600060208201905081810360008301526115da8161159e565b9050919050565b7f4e487b7100000000000000000000000000000000000000000000000000000000600052603260045260246000fd5b7f4e487b7100000000000000000000000000000000000000000000000000000000600052601160045260246000fd5b600061164a82611334565b915061165583611334565b925082820190508082111561166d5761166c611610565b5b92915050565b61167c8161127b565b82525050565b60006040820190506116976000830185611673565b6116a4602083018461146d565b9392505050565b6116b481611198565b81146116bf57600080fd5b50565b6000815190506116d1816116ab565b92915050565b6000602082840312156116ed576116ec61110e565b5b60006116fb848285016116c2565b91505092915050565b600061170f82611334565b91507fffffffffffffffffffffffffffffffffffffffffffffffffffffffffffffffff820361174157611740611610565b5b600182019050919050565b6000819050919050565b600061177161176c6117678461174c565b6114c4565b611334565b9050919050565b61178181611756565b82525050565b600060408201905061179c6000830185611673565b6117a96020830184611778565b9392505050565b6000819050919050565b60006117d56117d06117cb846117b0565b6114c4565b611334565b9050919050565b6117e5816117ba565b82525050565b60006040820190506118006000830185611673565b61180d60208301846117dc565b9392505050565b600081905092915050565b7f416363657373436f6e74726f6c3a206163636f756e7420000000000000000000600082015250565b6000611855601783611814565b91506118608261181f565b601782019050919050565b600081519050919050565b60005b83811015611894578082015181840152602081019050611879565b60008484015250505050565b60006118ab8261186b565b6118b58185611814565b93506118c5818560208601611876565b80840191505092915050565b7f206973206d697373696e6720726f6c6520000000000000000000000000000000600082015250565b6000611907601183611814565b9150611912826118d1565b601182019050919050565b600061192882611848565b915061193482856118a0565b915061193f826118fa565b915061194b82846118a0565b91508190509392505050565b6000601f19601f8301169050919050565b60006119738261186b565b61197d818561153e565b935061198d818560208601611876565b61199681611957565b840191505092915050565b600060208201905081810360008301526119bb8184611968565b905092915050565b60006119ce82611334565b91506119d983611334565b92508282026119e781611334565b915082820484148315176119fe576119fd611610565b5b5092915050565b7f4e487b7100000000000000000000000000000000000000000000000000000000600052604160045260246000fd5b6000611a3f82611334565b915060008203611a5257611a51611610565b5b600182039050919050565b7f537472696e67733a20686578206c656e67746820696e73756666696369656e74600082015250565b6000611a9360208361153e565b9150611a9e82611a5d565b602082019050919050565b60006020820190508181036000830152611ac281611a86565b905091905056fea26469706673582212208a218155a60d2283fa1195745d16b08b0a439bb444aa09400abc1b89d6596d1e64736f6c63430008110033",
  "immutableReferences": {},
  "source": "// SPDX-License-Identifier: MIT\r\npragma solidity ^0.8.9;\r\n\r\nimport \"@openzeppelin/contracts/token/ERC20/IERC20.sol\";\r\nimport \"@openzeppelin/contracts/access/AccessControl.sol\";\r\n\r\ncontract WVWDistribution is AccessControl {\r\n    IERC20 public token;\r\n    uint256 public startDateDistribution;\r\n    bool tokenConfigured;\r\n\r\n    uint256 oneMonth = 30 seconds;\r\n    uint256 sixMonths = 60 seconds;\r\n\r\n    address walletTeam;\r\n    address walletPartners;\r\n    address walletGiveways;\r\n    address walletLiquidityExchange;\r\n    address walletLaunch;\r\n    address walletPreSale;\r\n    address walletFounder;\r\n\r\n    struct DistributionItem {\r\n        address wallet;\r\n        uint256 lastClaim;\r\n        uint256 totalAmount;\r\n        uint256 timeLock;\r\n        uint256 amountPerClaim;\r\n        uint256 claimed;\r\n    }\r\n\r\n    DistributionItem[] distributions;\r\n\r\n    constructor(\r\n        address _walletTeam,\r\n        address _walletPartners,\r\n        address _walletGiveways,\r\n        address _walletLiquidityExchange,\r\n        address _walletLaunch,\r\n        address _walletPreSale,\r\n        address _walletFounder\r\n    ) {\r\n        startDateDistribution = block.timestamp;\r\n        tokenConfigured = false;\r\n        _grantRole(DEFAULT_ADMIN_ROLE, msg.sender);\r\n\r\n        walletTeam = _walletTeam;\r\n        walletPartners = _walletPartners;\r\n        walletGiveways = _walletGiveways;\r\n        walletLiquidityExchange = _walletLiquidityExchange;\r\n        walletLaunch = _walletLaunch;\r\n        walletPreSale = _walletPreSale;\r\n        walletFounder = _walletFounder;\r\n\r\n        configureTimeLocks();\r\n    }\r\n\r\n    function configureTokenAddress(address _token)\r\n        public\r\n        onlyRole(DEFAULT_ADMIN_ROLE)\r\n    {\r\n        // We need to configure token after token was created, but token needs Distribution contract.\r\n        require(!tokenConfigured);\r\n        token = IERC20(_token);\r\n        tokenConfigured = true;\r\n\r\n        sendPredefinedTokens(walletLaunch, walletPreSale, walletFounder);\r\n    }\r\n\r\n    function configureTimeLocks() private {\r\n        distributions.push(\r\n            DistributionItem(\r\n                walletTeam,\r\n                startDateDistribution,\r\n                10000000 * 10**18,\r\n                oneMonth,\r\n                500000,\r\n                0\r\n            )\r\n        );\r\n        distributions.push(\r\n            DistributionItem(\r\n                walletPartners,\r\n                startDateDistribution,\r\n                10000000 * 10**18,\r\n                oneMonth,\r\n                500000,\r\n                0\r\n            )\r\n        );\r\n        distributions.push(\r\n            DistributionItem(\r\n                walletGiveways,\r\n                startDateDistribution,\r\n                10000000 * 10**18,\r\n                oneMonth,\r\n                500000,\r\n                0\r\n            )\r\n        );\r\n        distributions.push(\r\n            DistributionItem(\r\n                walletLiquidityExchange,\r\n                startDateDistribution,\r\n                20000000 * 10**18,\r\n                sixMonths,\r\n                5000000,\r\n                0\r\n            )\r\n        );\r\n    }\r\n\r\n    function sendPredefinedTokens(\r\n        address _walletLaunch,\r\n        address _walletPreSale,\r\n        address _walletFounder\r\n    ) private {\r\n        token.transfer(_walletLaunch, 30000000 * 10**18);\r\n        token.transfer(_walletPreSale, 10000000 * 10**18);\r\n        token.transfer(_walletFounder, 10000000 * 10**18);\r\n    }\r\n\r\n    function verifyTimeLock() public view returns (bool availableClaim) {\r\n        for (uint256 i = 0; i < distributions.length; i++) {\r\n            if (\r\n                (distributions[i].claimed < distributions[i].totalAmount) &&\r\n                (block.timestamp >=\r\n                    distributions[i].lastClaim + distributions[i].timeLock)\r\n            ) {\r\n                return true;\r\n            }\r\n        }\r\n    }\r\n\r\n    function claim() public onlyRole(DEFAULT_ADMIN_ROLE) {\r\n        for (uint256 i = 0; i < distributions.length; i++) {\r\n            if (\r\n                block.timestamp >=\r\n                distributions[i].lastClaim + distributions[i].timeLock\r\n            ) {\r\n                if (distributions[i].claimed < distributions[i].totalAmount) {\r\n                    distributions[i].claimed =\r\n                        distributions[i].claimed +\r\n                        distributions[i].amountPerClaim;\r\n                    distributions[i].lastClaim = block.timestamp;\r\n                    token.transfer(\r\n                        distributions[i].wallet,\r\n                        distributions[i].amountPerClaim\r\n                    );\r\n                }\r\n            }\r\n        }\r\n    }\r\n\r\n    function getTimelocks()\r\n        public\r\n        view\r\n        returns (DistributionItem[] memory _timelocks)\r\n    {\r\n        return distributions;\r\n    }\r\n}\r\n",
  "sourcePath": "C:\\lucas_blockchain\\freela\\wvw\\Truffle\\contracts\\WVWDistribution.sol",
  "compiler": {
    "name": "solc",
    "version": "0.8.17+commit.8df45f5f.Emscripten.clang"
  },
  "schemaVersion": "3.4.11",
  "updatedAt": "2022-12-29T12:53:33.401Z",
  "networkType": "ethereum",
  "devdoc": {
    "kind": "dev",
    "methods": {
      "getRoleAdmin(bytes32)": {
        "details": "Returns the admin role that controls `role`. See {grantRole} and {revokeRole}. To change a role's admin, use {_setRoleAdmin}."
      },
      "grantRole(bytes32,address)": {
        "details": "Grants `role` to `account`. If `account` had not been already granted `role`, emits a {RoleGranted} event. Requirements: - the caller must have ``role``'s admin role. May emit a {RoleGranted} event."
      },
      "hasRole(bytes32,address)": {
        "details": "Returns `true` if `account` has been granted `role`."
      },
      "renounceRole(bytes32,address)": {
        "details": "Revokes `role` from the calling account. Roles are often managed via {grantRole} and {revokeRole}: this function's purpose is to provide a mechanism for accounts to lose their privileges if they are compromised (such as when a trusted device is misplaced). If the calling account had been revoked `role`, emits a {RoleRevoked} event. Requirements: - the caller must be `account`. May emit a {RoleRevoked} event."
      },
      "revokeRole(bytes32,address)": {
        "details": "Revokes `role` from `account`. If `account` had been granted `role`, emits a {RoleRevoked} event. Requirements: - the caller must have ``role``'s admin role. May emit a {RoleRevoked} event."
      },
      "supportsInterface(bytes4)": {
        "details": "See {IERC165-supportsInterface}."
      }
    },
    "version": 1
  },
  "userdoc": {
    "kind": "user",
    "methods": {},
    "version": 1
  }
}