{
  "contractName": "WVWPreSale",
  "abi": [
    {
      "inputs": [
        {
          "internalType": "address",
          "name": "_token",
          "type": "address"
        },
        {
          "internalType": "address",
          "name": "_owner",
          "type": "address"
        },
        {
          "internalType": "uint256",
          "name": "_tokenPrice",
          "type": "uint256"
        },
        {
          "internalType": "address",
          "name": "_walletTeam",
          "type": "address"
        },
        {
          "internalType": "address",
          "name": "_walletLiquidityExchange",
          "type": "address"
        },
        {
          "internalType": "uint256",
          "name": "_maxSpend",
          "type": "uint256"
        },
        {
          "internalType": "uint256",
          "name": "_minSpend",
          "type": "uint256"
        }
      ],
      "stateMutability": "nonpayable",
      "type": "constructor"
    },
    {
      "anonymous": false,
      "inputs": [
        {
          "indexed": false,
          "internalType": "address",
          "name": "account",
          "type": "address"
        }
      ],
      "name": "Paused",
      "type": "event"
    },
    {
      "anonymous": false,
      "inputs": [
        {
          "indexed": true,
          "internalType": "bytes32",
          "name": "role",
          "type": "bytes32"
        },
        {
          "indexed": true,
          "internalType": "bytes32",
          "name": "previousAdminRole",
          "type": "bytes32"
        },
        {
          "indexed": true,
          "internalType": "bytes32",
          "name": "newAdminRole",
          "type": "bytes32"
        }
      ],
      "name": "RoleAdminChanged",
      "type": "event"
    },
    {
      "anonymous": false,
      "inputs": [
        {
          "indexed": true,
          "internalType": "bytes32",
          "name": "role",
          "type": "bytes32"
        },
        {
          "indexed": true,
          "internalType": "address",
          "name": "account",
          "type": "address"
        },
        {
          "indexed": true,
          "internalType": "address",
          "name": "sender",
          "type": "address"
        }
      ],
      "name": "RoleGranted",
      "type": "event"
    },
    {
      "anonymous": false,
      "inputs": [
        {
          "indexed": true,
          "internalType": "bytes32",
          "name": "role",
          "type": "bytes32"
        },
        {
          "indexed": true,
          "internalType": "address",
          "name": "account",
          "type": "address"
        },
        {
          "indexed": true,
          "internalType": "address",
          "name": "sender",
          "type": "address"
        }
      ],
      "name": "RoleRevoked",
      "type": "event"
    },
    {
      "anonymous": false,
      "inputs": [
        {
          "indexed": false,
          "internalType": "address",
          "name": "account",
          "type": "address"
        }
      ],
      "name": "Unpaused",
      "type": "event"
    },
    {
      "inputs": [],
      "name": "DEFAULT_ADMIN_ROLE",
      "outputs": [
        {
          "internalType": "bytes32",
          "name": "",
          "type": "bytes32"
        }
      ],
      "stateMutability": "view",
      "type": "function",
      "constant": true
    },
    {
      "inputs": [
        {
          "internalType": "bytes32",
          "name": "role",
          "type": "bytes32"
        }
      ],
      "name": "getRoleAdmin",
      "outputs": [
        {
          "internalType": "bytes32",
          "name": "",
          "type": "bytes32"
        }
      ],
      "stateMutability": "view",
      "type": "function",
      "constant": true
    },
    {
      "inputs": [
        {
          "internalType": "bytes32",
          "name": "role",
          "type": "bytes32"
        },
        {
          "internalType": "address",
          "name": "account",
          "type": "address"
        }
      ],
      "name": "grantRole",
      "outputs": [],
      "stateMutability": "nonpayable",
      "type": "function"
    },
    {
      "inputs": [
        {
          "internalType": "bytes32",
          "name": "role",
          "type": "bytes32"
        },
        {
          "internalType": "address",
          "name": "account",
          "type": "address"
        }
      ],
      "name": "hasRole",
      "outputs": [
        {
          "internalType": "bool",
          "name": "",
          "type": "bool"
        }
      ],
      "stateMutability": "view",
      "type": "function",
      "constant": true
    },
    {
      "inputs": [],
      "name": "paused",
      "outputs": [
        {
          "internalType": "bool",
          "name": "",
          "type": "bool"
        }
      ],
      "stateMutability": "view",
      "type": "function",
      "constant": true
    },
    {
      "inputs": [
        {
          "internalType": "bytes32",
          "name": "role",
          "type": "bytes32"
        },
        {
          "internalType": "address",
          "name": "account",
          "type": "address"
        }
      ],
      "name": "renounceRole",
      "outputs": [],
      "stateMutability": "nonpayable",
      "type": "function"
    },
    {
      "inputs": [
        {
          "internalType": "bytes32",
          "name": "role",
          "type": "bytes32"
        },
        {
          "internalType": "address",
          "name": "account",
          "type": "address"
        }
      ],
      "name": "revokeRole",
      "outputs": [],
      "stateMutability": "nonpayable",
      "type": "function"
    },
    {
      "inputs": [
        {
          "internalType": "bytes4",
          "name": "interfaceId",
          "type": "bytes4"
        }
      ],
      "name": "supportsInterface",
      "outputs": [
        {
          "internalType": "bool",
          "name": "",
          "type": "bool"
        }
      ],
      "stateMutability": "view",
      "type": "function",
      "constant": true
    },
    {
      "inputs": [],
      "name": "token",
      "outputs": [
        {
          "internalType": "contract IERC20WVW",
          "name": "",
          "type": "address"
        }
      ],
      "stateMutability": "view",
      "type": "function",
      "constant": true
    },
    {
      "inputs": [],
      "name": "pause",
      "outputs": [],
      "stateMutability": "nonpayable",
      "type": "function"
    },
    {
      "inputs": [],
      "name": "unpause",
      "outputs": [],
      "stateMutability": "nonpayable",
      "type": "function"
    },
    {
      "inputs": [
        {
          "internalType": "uint256",
          "name": "_newPrice",
          "type": "uint256"
        }
      ],
      "name": "setTokenPrice",
      "outputs": [],
      "stateMutability": "nonpayable",
      "type": "function"
    },
    {
      "inputs": [
        {
          "internalType": "uint256",
          "name": "_tokenAmount",
          "type": "uint256"
        }
      ],
      "name": "buyTokens",
      "outputs": [],
      "stateMutability": "payable",
      "type": "function",
      "payable": true
    },
    {
      "inputs": [],
      "name": "returnTokensToWallet",
      "outputs": [],
      "stateMutability": "nonpayable",
      "type": "function"
    },
    {
      "inputs": [],
      "name": "getTokenPrice",
      "outputs": [
        {
          "internalType": "uint256",
          "name": "_tokenPrice",
          "type": "uint256"
        }
      ],
      "stateMutability": "view",
      "type": "function",
      "constant": true
    },
    {
      "inputs": [
        {
          "internalType": "address",
          "name": "_address",
          "type": "address"
        }
      ],
      "name": "getSpentValue",
      "outputs": [
        {
          "internalType": "uint256",
          "name": "_spentValue",
          "type": "uint256"
        }
      ],
      "stateMutability": "view",
      "type": "function",
      "constant": true
    }
  ],
  "bytecode": "0x60806040523480156200001157600080fd5b506040516200281b3803806200281b833981810160405281019062000037919062000371565b6000600160006101000a81548160ff02191690831515021790555060016002819055506200006f6000801b336200016960201b60201c565b620000846000801b876200016960201b60201c565b86600360006101000a81548173ffffffffffffffffffffffffffffffffffffffff021916908373ffffffffffffffffffffffffffffffffffffffff1602179055508460048190555083600560006101000a81548173ffffffffffffffffffffffffffffffffffffffff021916908373ffffffffffffffffffffffffffffffffffffffff16021790555082600660006101000a81548173ffffffffffffffffffffffffffffffffffffffff021916908373ffffffffffffffffffffffffffffffffffffffff16021790555081600881905550806009819055505050505050505062000424565b6200017b82826200025a60201b60201c565b6200025657600160008084815260200190815260200160002060000160008373ffffffffffffffffffffffffffffffffffffffff1673ffffffffffffffffffffffffffffffffffffffff16815260200190815260200160002060006101000a81548160ff021916908315150217905550620001fb620002c460201b60201c565b73ffffffffffffffffffffffffffffffffffffffff168173ffffffffffffffffffffffffffffffffffffffff16837f2f8788117e7eff1d82e926ec794901d17c78024a50270940304540a733656f0d60405160405180910390a45b5050565b600080600084815260200190815260200160002060000160008373ffffffffffffffffffffffffffffffffffffffff1673ffffffffffffffffffffffffffffffffffffffff16815260200190815260200160002060009054906101000a900460ff16905092915050565b600033905090565b600080fd5b600073ffffffffffffffffffffffffffffffffffffffff82169050919050565b6000620002fe82620002d1565b9050919050565b6200031081620002f1565b81146200031c57600080fd5b50565b600081519050620003308162000305565b92915050565b6000819050919050565b6200034b8162000336565b81146200035757600080fd5b50565b6000815190506200036b8162000340565b92915050565b600080600080600080600060e0888a031215620003935762000392620002cc565b5b6000620003a38a828b016200031f565b9750506020620003b68a828b016200031f565b9650506040620003c98a828b016200035a565b9550506060620003dc8a828b016200031f565b9450506080620003ef8a828b016200031f565b93505060a0620004028a828b016200035a565b92505060c0620004158a828b016200035a565b91505092959891949750929550565b6123e780620004346000396000f3fe6080604052600436106100f35760003560e01c80636a61e5fc1161008a578063d017c2b411610059578063d017c2b4146102f5578063d341fd5d1461030c578063d547741f14610349578063fc0c546a14610372576100f3565b80636a61e5fc1461024d5780638456cb591461027657806391d148541461028d578063a217fddf146102ca576100f3565b806336568abe116100c657806336568abe146101b75780633f4ba83a146101e05780634b94f50e146101f75780635c975abb14610222576100f3565b806301ffc9a7146100f8578063248a9ca3146101355780632f2ff15d146101725780633610724e1461019b575b600080fd5b34801561010457600080fd5b5061011f600480360381019061011a9190611632565b61039d565b60405161012c919061167a565b60405180910390f35b34801561014157600080fd5b5061015c600480360381019061015791906116cb565b610417565b6040516101699190611707565b60405180910390f35b34801561017e57600080fd5b5061019960048036038101906101949190611780565b610436565b005b6101b560048036038101906101b091906117f6565b610457565b005b3480156101c357600080fd5b506101de60048036038101906101d99190611780565b6108a8565b005b3480156101ec57600080fd5b506101f561092b565b005b34801561020357600080fd5b5061020c610943565b6040516102199190611832565b60405180910390f35b34801561022e57600080fd5b5061023761094d565b604051610244919061167a565b60405180910390f35b34801561025957600080fd5b50610274600480360381019061026f91906117f6565b610964565b005b34801561028257600080fd5b5061028b61097c565b005b34801561029957600080fd5b506102b460048036038101906102af9190611780565b610994565b6040516102c1919061167a565b60405180910390f35b3480156102d657600080fd5b506102df6109fe565b6040516102ec9190611707565b60405180910390f35b34801561030157600080fd5b5061030a610a05565b005b34801561031857600080fd5b50610333600480360381019061032e919061184d565b610b73565b6040516103409190611832565b60405180910390f35b34801561035557600080fd5b50610370600480360381019061036b9190611780565b610bbc565b005b34801561037e57600080fd5b50610387610bdd565b60405161039491906118d9565b60405180910390f35b60007f7965db0b000000000000000000000000000000000000000000000000000000007bffffffffffffffffffffffffffffffffffffffffffffffffffffffff1916827bffffffffffffffffffffffffffffffffffffffffffffffffffffffff19161480610410575061040f82610c03565b5b9050919050565b6000806000838152602001908152602001600020600101549050919050565b61043f82610417565b61044881610c6d565b6104528383610c81565b505050565b61045f610d61565b610467610dab565b6009543410156104ac576040517f08c379a00000000000000000000000000000000000000000000000000000000081526004016104a390611977565b60405180910390fd5b60085434600760003373ffffffffffffffffffffffffffffffffffffffff1673ffffffffffffffffffffffffffffffffffffffff168152602001908152602001600020546104fa91906119c6565b111561053b576040517f08c379a000000000000000000000000000000000000000000000000000000000815260040161053290611a6c565b60405180910390fd5b6000600360009054906101000a900473ffffffffffffffffffffffffffffffffffffffff1673ffffffffffffffffffffffffffffffffffffffff1663313ce5676040518163ffffffff1660e01b8152600401602060405180830381865afa1580156105aa573d6000803e3d6000fd5b505050506040513d601f19601f820116820180604052508101906105ce9190611ac5565b600a6105da9190611c25565b826105e59190611c70565b905080600360009054906101000a900473ffffffffffffffffffffffffffffffffffffffff1673ffffffffffffffffffffffffffffffffffffffff166370a08231306040518263ffffffff1660e01b81526004016106439190611cc1565b602060405180830381865afa158015610660573d6000803e3d6000fd5b505050506040513d601f19601f820116820180604052508101906106849190611cf1565b116106c4576040517f08c379a00000000000000000000000000000000000000000000000000000000081526004016106bb90611d6a565b60405180910390fd5b6000806106dc60045485610df890919063ffffffff16565b9150915081610720576040517f08c379a000000000000000000000000000000000000000000000000000000000815260040161071790611dd6565b60405180910390fd5b348114610762576040517f08c379a000000000000000000000000000000000000000000000000000000000815260040161075990611e68565b60405180910390fd5b34600760003373ffffffffffffffffffffffffffffffffffffffff1673ffffffffffffffffffffffffffffffffffffffff168152602001908152602001600020546107ad91906119c6565b600760003373ffffffffffffffffffffffffffffffffffffffff1673ffffffffffffffffffffffffffffffffffffffff168152602001908152602001600020819055506107f934610e4b565b600360009054906101000a900473ffffffffffffffffffffffffffffffffffffffff1673ffffffffffffffffffffffffffffffffffffffff1663a9059cbb33856040518363ffffffff1660e01b8152600401610856929190611e88565b6020604051808303816000875af1158015610875573d6000803e3d6000fd5b505050506040513d601f19601f820116820180604052508101906108999190611edd565b505050506108a5610e60565b50565b6108b0610e6a565b73ffffffffffffffffffffffffffffffffffffffff168173ffffffffffffffffffffffffffffffffffffffff161461091d576040517f08c379a000000000000000000000000000000000000000000000000000000000815260040161091490611f7c565b60405180910390fd5b6109278282610e72565b5050565b6000801b61093881610c6d565b610940610f53565b50565b6000600454905090565b6000600160009054906101000a900460ff16905090565b6000801b61097181610c6d565b816004819055505050565b6000801b61098981610c6d565b610991610fb6565b50565b600080600084815260200190815260200160002060000160008373ffffffffffffffffffffffffffffffffffffffff1673ffffffffffffffffffffffffffffffffffffffff16815260200190815260200160002060009054906101000a900460ff16905092915050565b6000801b81565b6000801b610a1281610c6d565b600360009054906101000a900473ffffffffffffffffffffffffffffffffffffffff1673ffffffffffffffffffffffffffffffffffffffff1663a9059cbb600560009054906101000a900473ffffffffffffffffffffffffffffffffffffffff16600360009054906101000a900473ffffffffffffffffffffffffffffffffffffffff1673ffffffffffffffffffffffffffffffffffffffff166370a08231306040518263ffffffff1660e01b8152600401610ace9190611cc1565b602060405180830381865afa158015610aeb573d6000803e3d6000fd5b505050506040513d601f19601f82011682018060405250810190610b0f9190611cf1565b6040518363ffffffff1660e01b8152600401610b2c929190611e88565b6020604051808303816000875af1158015610b4b573d6000803e3d6000fd5b505050506040513d601f19601f82011682018060405250810190610b6f9190611edd565b5050565b6000600760008373ffffffffffffffffffffffffffffffffffffffff1673ffffffffffffffffffffffffffffffffffffffff168152602001908152602001600020549050919050565b610bc582610417565b610bce81610c6d565b610bd88383610e72565b505050565b600360009054906101000a900473ffffffffffffffffffffffffffffffffffffffff1681565b60007f01ffc9a7000000000000000000000000000000000000000000000000000000007bffffffffffffffffffffffffffffffffffffffffffffffffffffffff1916827bffffffffffffffffffffffffffffffffffffffffffffffffffffffff1916149050919050565b610c7e81610c79610e6a565b611018565b50565b610c8b8282610994565b610d5d57600160008084815260200190815260200160002060000160008373ffffffffffffffffffffffffffffffffffffffff1673ffffffffffffffffffffffffffffffffffffffff16815260200190815260200160002060006101000a81548160ff021916908315150217905550610d02610e6a565b73ffffffffffffffffffffffffffffffffffffffff168173ffffffffffffffffffffffffffffffffffffffff16837f2f8788117e7eff1d82e926ec794901d17c78024a50270940304540a733656f0d60405160405180910390a45b5050565b610d6961094d565b15610da9576040517f08c379a0000000000000000000000000000000000000000000000000000000008152600401610da090611fe8565b60405180910390fd5b565b6002805403610def576040517f08c379a0000000000000000000000000000000000000000000000000000000008152600401610de690612054565b60405180910390fd5b60028081905550565b60008060008403610e10576001600091509150610e44565b6000838502905083858281610e2857610e27612074565b5b0414610e3b576000809250925050610e44565b60018192509250505b9250929050565b610e548161109d565b610e5d816111c5565b50565b6001600281905550565b600033905090565b610e7c8282610994565b15610f4f57600080600084815260200190815260200160002060000160008373ffffffffffffffffffffffffffffffffffffffff1673ffffffffffffffffffffffffffffffffffffffff16815260200190815260200160002060006101000a81548160ff021916908315150217905550610ef4610e6a565b73ffffffffffffffffffffffffffffffffffffffff168173ffffffffffffffffffffffffffffffffffffffff16837ff6391f5c32d9c69d2a47ea670b442974b53935d1edc7fd64eb21e047a839171b60405160405180910390a45b5050565b610f5b6112ed565b6000600160006101000a81548160ff0219169083151502179055507f5db9ee0a495bf2e6ff9c91a7834c1ba4fdd244a5e8aa4e537bd38aeae4b073aa610f9f610e6a565b604051610fac9190611cc1565b60405180910390a1565b610fbe610d61565b60018060006101000a81548160ff0219169083151502179055507f62e78cea01bee320cd4e420270b5ea74000d11b0c9f74754ebdbfc544b05a258611001610e6a565b60405161100e9190611cc1565b60405180910390a1565b6110228282610994565b6110995761102f81611336565b61103d8360001c6020611363565b60405160200161104e9291906121ac565b6040516020818303038152906040526040517f08c379a00000000000000000000000000000000000000000000000000000000081526004016110909190612230565b60405180910390fd5b5050565b6000806110b5610bb884610df890919063ffffffff16565b91509150816110f9576040517f08c379a00000000000000000000000000000000000000000000000000000000081526004016110f090611dd6565b60405180910390fd5b6000806111116127108461159f90919063ffffffff16565b9150915081611155576040517f08c379a000000000000000000000000000000000000000000000000000000000815260040161114c90611dd6565b60405180910390fd5b600560009054906101000a900473ffffffffffffffffffffffffffffffffffffffff1673ffffffffffffffffffffffffffffffffffffffff166108fc829081150290604051600060405180830381858888f193505050501580156111bd573d6000803e3d6000fd5b505050505050565b6000806111dd611b5884610df890919063ffffffff16565b9150915081611221576040517f08c379a000000000000000000000000000000000000000000000000000000000815260040161121890611dd6565b60405180910390fd5b6000806112396127108461159f90919063ffffffff16565b915091508161127d576040517f08c379a000000000000000000000000000000000000000000000000000000000815260040161127490611dd6565b60405180910390fd5b600660009054906101000a900473ffffffffffffffffffffffffffffffffffffffff1673ffffffffffffffffffffffffffffffffffffffff166108fc829081150290604051600060405180830381858888f193505050501580156112e5573d6000803e3d6000fd5b505050505050565b6112f561094d565b611334576040517f08c379a000000000000000000000000000000000000000000000000000000000815260040161132b9061229e565b60405180910390fd5b565b606061135c8273ffffffffffffffffffffffffffffffffffffffff16601460ff16611363565b9050919050565b6060600060028360026113769190611c70565b61138091906119c6565b67ffffffffffffffff811115611399576113986122be565b5b6040519080825280601f01601f1916602001820160405280156113cb5781602001600182028036833780820191505090505b5090507f300000000000000000000000000000000000000000000000000000000000000081600081518110611403576114026122ed565b5b60200101907effffffffffffffffffffffffffffffffffffffffffffffffffffffffffffff1916908160001a9053507f780000000000000000000000000000000000000000000000000000000000000081600181518110611467576114666122ed565b5b60200101907effffffffffffffffffffffffffffffffffffffffffffffffffffffffffffff1916908160001a905350600060018460026114a79190611c70565b6114b191906119c6565b90505b6001811115611551577f3031323334353637383961626364656600000000000000000000000000000000600f8616601081106114f3576114f26122ed565b5b1a60f81b82828151811061150a576115096122ed565b5b60200101907effffffffffffffffffffffffffffffffffffffffffffffffffffffffffffff1916908160001a905350600485901c94508061154a9061231c565b90506114b4565b5060008414611595576040517f08c379a000000000000000000000000000000000000000000000000000000000815260040161158c90612391565b60405180910390fd5b8091505092915050565b600080600083036115b657600080915091506115ce565b60018385816115c8576115c7612074565b5b04915091505b9250929050565b600080fd5b60007fffffffff0000000000000000000000000000000000000000000000000000000082169050919050565b61160f816115da565b811461161a57600080fd5b50565b60008135905061162c81611606565b92915050565b600060208284031215611648576116476115d5565b5b60006116568482850161161d565b91505092915050565b60008115159050919050565b6116748161165f565b82525050565b600060208201905061168f600083018461166b565b92915050565b6000819050919050565b6116a881611695565b81146116b357600080fd5b50565b6000813590506116c58161169f565b92915050565b6000602082840312156116e1576116e06115d5565b5b60006116ef848285016116b6565b91505092915050565b61170181611695565b82525050565b600060208201905061171c60008301846116f8565b92915050565b600073ffffffffffffffffffffffffffffffffffffffff82169050919050565b600061174d82611722565b9050919050565b61175d81611742565b811461176857600080fd5b50565b60008135905061177a81611754565b92915050565b60008060408385031215611797576117966115d5565b5b60006117a5858286016116b6565b92505060206117b68582860161176b565b9150509250929050565b6000819050919050565b6117d3816117c0565b81146117de57600080fd5b50565b6000813590506117f0816117ca565b92915050565b60006020828403121561180c5761180b6115d5565b5b600061181a848285016117e1565b91505092915050565b61182c816117c0565b82525050565b60006020820190506118476000830184611823565b92915050565b600060208284031215611863576118626115d5565b5b60006118718482850161176b565b91505092915050565b6000819050919050565b600061189f61189a61189584611722565b61187a565b611722565b9050919050565b60006118b182611884565b9050919050565b60006118c3826118a6565b9050919050565b6118d3816118b8565b82525050565b60006020820190506118ee60008301846118ca565b92915050565b600082825260208201905092915050565b7f54686572652069732061206d696e696d756d20726571756972656420746f206260008201527f757920746f6b656e732e00000000000000000000000000000000000000000000602082015250565b6000611961602a836118f4565b915061196c82611905565b604082019050919050565b6000602082019050818103600083015261199081611954565b9050919050565b7f4e487b7100000000000000000000000000000000000000000000000000000000600052601160045260246000fd5b60006119d1826117c0565b91506119dc836117c0565b92508282019050808211156119f4576119f3611997565b5b92915050565b7f546869732077616c6c657420616c726561647920626f7567687420746865206d60008201527f6178696d756d20746f6b656e7320616c6c6f7765642e00000000000000000000602082015250565b6000611a566036836118f4565b9150611a61826119fa565b604082019050919050565b60006020820190508181036000830152611a8581611a49565b9050919050565b600060ff82169050919050565b611aa281611a8c565b8114611aad57600080fd5b50565b600081519050611abf81611a99565b92915050565b600060208284031215611adb57611ada6115d5565b5b6000611ae984828501611ab0565b91505092915050565b60008160011c9050919050565b6000808291508390505b6001851115611b4957808604811115611b2557611b24611997565b5b6001851615611b345780820291505b8081029050611b4285611af2565b9450611b09565b94509492505050565b600082611b625760019050611c1e565b81611b705760009050611c1e565b8160018114611b865760028114611b9057611bbf565b6001915050611c1e565b60ff841115611ba257611ba1611997565b5b8360020a915084821115611bb957611bb8611997565b5b50611c1e565b5060208310610133831016604e8410600b8410161715611bf45782820a905083811115611bef57611bee611997565b5b611c1e565b611c018484846001611aff565b92509050818404811115611c1857611c17611997565b5b81810290505b9392505050565b6000611c30826117c0565b9150611c3b83611a8c565b9250611c687fffffffffffffffffffffffffffffffffffffffffffffffffffffffffffffffff8484611b52565b905092915050565b6000611c7b826117c0565b9150611c86836117c0565b9250828202611c94816117c0565b91508282048414831517611cab57611caa611997565b5b5092915050565b611cbb81611742565b82525050565b6000602082019050611cd66000830184611cb2565b92915050565b600081519050611ceb816117ca565b92915050565b600060208284031215611d0757611d066115d5565b5b6000611d1584828501611cdc565b91505092915050565b7f4f7574206f662073746f636b2e00000000000000000000000000000000000000600082015250565b6000611d54600d836118f4565b9150611d5f82611d1e565b602082019050919050565b60006020820190508181036000830152611d8381611d47565b9050919050565b7f50726f626c656d20776974682073616665206d6174682e000000000000000000600082015250565b6000611dc06017836118f4565b9150611dcb82611d8a565b602082019050919050565b60006020820190508181036000830152611def81611db3565b9050919050565b7f596f75206861766520746f2073656e642065786163746c79207468652070726960008201527f636520746f206275792074686520746f6b656e732e0000000000000000000000602082015250565b6000611e526035836118f4565b9150611e5d82611df6565b604082019050919050565b60006020820190508181036000830152611e8181611e45565b9050919050565b6000604082019050611e9d6000830185611cb2565b611eaa6020830184611823565b9392505050565b611eba8161165f565b8114611ec557600080fd5b50565b600081519050611ed781611eb1565b92915050565b600060208284031215611ef357611ef26115d5565b5b6000611f0184828501611ec8565b91505092915050565b7f416363657373436f6e74726f6c3a2063616e206f6e6c792072656e6f756e636560008201527f20726f6c657320666f722073656c660000000000000000000000000000000000602082015250565b6000611f66602f836118f4565b9150611f7182611f0a565b604082019050919050565b60006020820190508181036000830152611f9581611f59565b9050919050565b7f5061757361626c653a2070617573656400000000000000000000000000000000600082015250565b6000611fd26010836118f4565b9150611fdd82611f9c565b602082019050919050565b6000602082019050818103600083015261200181611fc5565b9050919050565b7f5265656e7472616e637947756172643a207265656e7472616e742063616c6c00600082015250565b600061203e601f836118f4565b915061204982612008565b602082019050919050565b6000602082019050818103600083015261206d81612031565b9050919050565b7f4e487b7100000000000000000000000000000000000000000000000000000000600052601260045260246000fd5b600081905092915050565b7f416363657373436f6e74726f6c3a206163636f756e7420000000000000000000600082015250565b60006120e46017836120a3565b91506120ef826120ae565b601782019050919050565b600081519050919050565b60005b83811015612123578082015181840152602081019050612108565b60008484015250505050565b600061213a826120fa565b61214481856120a3565b9350612154818560208601612105565b80840191505092915050565b7f206973206d697373696e6720726f6c6520000000000000000000000000000000600082015250565b60006121966011836120a3565b91506121a182612160565b601182019050919050565b60006121b7826120d7565b91506121c3828561212f565b91506121ce82612189565b91506121da828461212f565b91508190509392505050565b6000601f19601f8301169050919050565b6000612202826120fa565b61220c81856118f4565b935061221c818560208601612105565b612225816121e6565b840191505092915050565b6000602082019050818103600083015261224a81846121f7565b905092915050565b7f5061757361626c653a206e6f7420706175736564000000000000000000000000600082015250565b60006122886014836118f4565b915061229382612252565b602082019050919050565b600060208201905081810360008301526122b78161227b565b9050919050565b7f4e487b7100000000000000000000000000000000000000000000000000000000600052604160045260246000fd5b7f4e487b7100000000000000000000000000000000000000000000000000000000600052603260045260246000fd5b6000612327826117c0565b91506000820361233a57612339611997565b5b600182039050919050565b7f537472696e67733a20686578206c656e67746820696e73756666696369656e74600082015250565b600061237b6020836118f4565b915061238682612345565b602082019050919050565b600060208201905081810360008301526123aa8161236e565b905091905056fea26469706673582212207aa808128823927f1eba214557e27f14df4ec58b9e698d250cd7155fc9caf6ad64736f6c63430008110033",
  "immutableReferences": {},
  "source": "// SPDX-License-Identifier: MIT\r\npragma solidity ^0.8.9;\r\n\r\nimport \"@openzeppelin/contracts/access/AccessControl.sol\";\r\nimport \"@openzeppelin/contracts/token/ERC20/IERC20.sol\";\r\nimport \"@openzeppelin/contracts/utils/math/SafeMath.sol\";\r\nimport \"@openzeppelin/contracts/security/Pausable.sol\";\r\nimport \"@openzeppelin/contracts/security/ReentrancyGuard.sol\";\r\n\r\ninterface IERC20WVW is IERC20 {\r\n    function decimals() external view returns (uint8);\r\n}\r\n\r\ncontract WVWPreSale is AccessControl, Pausable, ReentrancyGuard {\r\n    using SafeMath for uint256;\r\n    IERC20WVW public token;\r\n    uint256 private tokenPrice;\r\n\r\n    address walletTeam;\r\n    address walletLiquidityExchange;\r\n\r\n    mapping(address => uint256) usersMaxSpend;\r\n    uint256 maxSpend;\r\n    uint256 minSpend;\r\n\r\n    constructor(\r\n        address _token,\r\n        address _owner,\r\n        uint256 _tokenPrice,\r\n        address _walletTeam,\r\n        address _walletLiquidityExchange,\r\n        uint256 _maxSpend,\r\n        uint256 _minSpend\r\n    ) {\r\n        _grantRole(DEFAULT_ADMIN_ROLE, msg.sender);\r\n        _grantRole(DEFAULT_ADMIN_ROLE, _owner);\r\n        token = IERC20WVW(_token);\r\n        tokenPrice = _tokenPrice;\r\n        walletTeam = _walletTeam;\r\n        walletLiquidityExchange = _walletLiquidityExchange;\r\n        maxSpend = _maxSpend;\r\n        minSpend = _minSpend;\r\n    }\r\n\r\n    function pause() public onlyRole(DEFAULT_ADMIN_ROLE) {\r\n        _pause();\r\n    }\r\n\r\n    function unpause() public onlyRole(DEFAULT_ADMIN_ROLE) {\r\n        _unpause();\r\n    }\r\n\r\n    function setTokenPrice(uint256 _newPrice)\r\n        public\r\n        onlyRole(DEFAULT_ADMIN_ROLE)\r\n    {\r\n        tokenPrice = _newPrice;\r\n    }\r\n\r\n    function buyTokens(uint256 _tokenAmount)\r\n        public\r\n        payable\r\n        whenNotPaused\r\n        nonReentrant\r\n    {\r\n        require(\r\n            msg.value >= minSpend,\r\n            \"There is a minimum required to buy tokens.\"\r\n        );\r\n        require(\r\n            (usersMaxSpend[msg.sender] + msg.value) <= maxSpend,\r\n            \"This wallet already bought the maximum tokens allowed.\"\r\n        );\r\n        uint256 formatToken = _tokenAmount * 10**token.decimals();\r\n        require(token.balanceOf(address(this)) > formatToken, \"Out of stock.\");\r\n        (bool safeMath, uint256 result) = _tokenAmount.tryMul(tokenPrice);\r\n        require(safeMath, \"Problem with safe math.\");\r\n        require(\r\n            result == msg.value,\r\n            \"You have to send exactly the price to buy the tokens.\"\r\n        );\r\n        usersMaxSpend[msg.sender] = usersMaxSpend[msg.sender] + msg.value;\r\n        paymentRulesWallets(msg.value);\r\n        token.transfer(msg.sender, formatToken);\r\n    }\r\n\r\n    function paymentRulesWallets(uint256 _value) private {\r\n        sendMoneyToWalletTeam(_value);\r\n        sendMoneyToWalletLiquidityExchange(_value);\r\n    }\r\n\r\n    function sendMoneyToWalletTeam(uint256 value) private {\r\n        // Send 30% to Team Wallet\r\n        (bool multSuccess, uint256 multResult) = value.tryMul(3000);\r\n        require(multSuccess, \"Problem with safe math.\");\r\n        (bool divSuccess, uint256 divResult) = multResult.tryDiv(10_000);\r\n        require(divSuccess, \"Problem with safe math.\");\r\n\r\n        payable(walletTeam).transfer(divResult);\r\n    }\r\n\r\n    function sendMoneyToWalletLiquidityExchange(uint256 value) private {\r\n        // Send 70% to Liquidity Wallet\r\n        (bool multSuccess, uint256 multResult) = value.tryMul(7000);\r\n        require(multSuccess, \"Problem with safe math.\");\r\n        (bool divSuccess, uint256 divResult) = multResult.tryDiv(10_000);\r\n        require(divSuccess, \"Problem with safe math.\");\r\n\r\n        payable(walletLiquidityExchange).transfer(divResult);\r\n    }\r\n\r\n    function returnTokensToWallet() public onlyRole(DEFAULT_ADMIN_ROLE) {\r\n        token.transfer(walletTeam, token.balanceOf(address(this)));\r\n    }\r\n\r\n    function getTokenPrice() public view returns (uint256 _tokenPrice) {\r\n        return tokenPrice;\r\n    }\r\n\r\n    function getSpentValue(address _address)\r\n        public\r\n        view\r\n        returns (uint256 _spentValue)\r\n    {\r\n        return usersMaxSpend[_address];\r\n    }\r\n}\r\n",
  "sourcePath": "C:\\lucas_blockchain\\freela\\wvw\\Truffle\\contracts\\WVWPreSale.sol",
  "compiler": {
    "name": "solc",
    "version": "0.8.17+commit.8df45f5f.Emscripten.clang"
  },
  "schemaVersion": "3.4.11",
  "updatedAt": "2022-12-29T12:53:33.679Z",
  "networkType": "ethereum",
  "devdoc": {
    "kind": "dev",
    "methods": {
      "getRoleAdmin(bytes32)": {
        "details": "Returns the admin role that controls `role`. See {grantRole} and {revokeRole}. To change a role's admin, use {_setRoleAdmin}."
      },
      "grantRole(bytes32,address)": {
        "details": "Grants `role` to `account`. If `account` had not been already granted `role`, emits a {RoleGranted} event. Requirements: - the caller must have ``role``'s admin role. May emit a {RoleGranted} event."
      },
      "hasRole(bytes32,address)": {
        "details": "Returns `true` if `account` has been granted `role`."
      },
      "paused()": {
        "details": "Returns true if the contract is paused, and false otherwise."
      },
      "renounceRole(bytes32,address)": {
        "details": "Revokes `role` from the calling account. Roles are often managed via {grantRole} and {revokeRole}: this function's purpose is to provide a mechanism for accounts to lose their privileges if they are compromised (such as when a trusted device is misplaced). If the calling account had been revoked `role`, emits a {RoleRevoked} event. Requirements: - the caller must be `account`. May emit a {RoleRevoked} event."
      },
      "revokeRole(bytes32,address)": {
        "details": "Revokes `role` from `account`. If `account` had been granted `role`, emits a {RoleRevoked} event. Requirements: - the caller must have ``role``'s admin role. May emit a {RoleRevoked} event."
      },
      "supportsInterface(bytes4)": {
        "details": "See {IERC165-supportsInterface}."
      }
    },
    "version": 1
  },
  "userdoc": {
    "kind": "user",
    "methods": {},
    "version": 1
  }
}