{
  "contractName": "WVWPreSale",
  "abi": [
    {
      "inputs": [
        {
          "internalType": "address",
          "name": "_token",
          "type": "address"
        },
        {
          "internalType": "address",
          "name": "_owner",
          "type": "address"
        },
        {
          "internalType": "uint256",
          "name": "_tokenPrice",
          "type": "uint256"
        },
        {
          "internalType": "address",
          "name": "_walletPreSale",
          "type": "address"
        },
        {
          "internalType": "address",
          "name": "_walletTeam",
          "type": "address"
        },
        {
          "internalType": "address",
          "name": "_walletLiquidityExchange",
          "type": "address"
        },
        {
          "internalType": "uint256",
          "name": "_maxSpend",
          "type": "uint256"
        },
        {
          "internalType": "uint256",
          "name": "_minSpend",
          "type": "uint256"
        }
      ],
      "stateMutability": "nonpayable",
      "type": "constructor"
    },
    {
      "anonymous": false,
      "inputs": [
        {
          "indexed": false,
          "internalType": "address",
          "name": "account",
          "type": "address"
        }
      ],
      "name": "Paused",
      "type": "event"
    },
    {
      "anonymous": false,
      "inputs": [
        {
          "indexed": true,
          "internalType": "bytes32",
          "name": "role",
          "type": "bytes32"
        },
        {
          "indexed": true,
          "internalType": "bytes32",
          "name": "previousAdminRole",
          "type": "bytes32"
        },
        {
          "indexed": true,
          "internalType": "bytes32",
          "name": "newAdminRole",
          "type": "bytes32"
        }
      ],
      "name": "RoleAdminChanged",
      "type": "event"
    },
    {
      "anonymous": false,
      "inputs": [
        {
          "indexed": true,
          "internalType": "bytes32",
          "name": "role",
          "type": "bytes32"
        },
        {
          "indexed": true,
          "internalType": "address",
          "name": "account",
          "type": "address"
        },
        {
          "indexed": true,
          "internalType": "address",
          "name": "sender",
          "type": "address"
        }
      ],
      "name": "RoleGranted",
      "type": "event"
    },
    {
      "anonymous": false,
      "inputs": [
        {
          "indexed": true,
          "internalType": "bytes32",
          "name": "role",
          "type": "bytes32"
        },
        {
          "indexed": true,
          "internalType": "address",
          "name": "account",
          "type": "address"
        },
        {
          "indexed": true,
          "internalType": "address",
          "name": "sender",
          "type": "address"
        }
      ],
      "name": "RoleRevoked",
      "type": "event"
    },
    {
      "anonymous": false,
      "inputs": [
        {
          "indexed": false,
          "internalType": "address",
          "name": "account",
          "type": "address"
        }
      ],
      "name": "Unpaused",
      "type": "event"
    },
    {
      "inputs": [],
      "name": "DEFAULT_ADMIN_ROLE",
      "outputs": [
        {
          "internalType": "bytes32",
          "name": "",
          "type": "bytes32"
        }
      ],
      "stateMutability": "view",
      "type": "function",
      "constant": true
    },
    {
      "inputs": [
        {
          "internalType": "bytes32",
          "name": "role",
          "type": "bytes32"
        }
      ],
      "name": "getRoleAdmin",
      "outputs": [
        {
          "internalType": "bytes32",
          "name": "",
          "type": "bytes32"
        }
      ],
      "stateMutability": "view",
      "type": "function",
      "constant": true
    },
    {
      "inputs": [
        {
          "internalType": "bytes32",
          "name": "role",
          "type": "bytes32"
        },
        {
          "internalType": "address",
          "name": "account",
          "type": "address"
        }
      ],
      "name": "grantRole",
      "outputs": [],
      "stateMutability": "nonpayable",
      "type": "function"
    },
    {
      "inputs": [
        {
          "internalType": "bytes32",
          "name": "role",
          "type": "bytes32"
        },
        {
          "internalType": "address",
          "name": "account",
          "type": "address"
        }
      ],
      "name": "hasRole",
      "outputs": [
        {
          "internalType": "bool",
          "name": "",
          "type": "bool"
        }
      ],
      "stateMutability": "view",
      "type": "function",
      "constant": true
    },
    {
      "inputs": [],
      "name": "paused",
      "outputs": [
        {
          "internalType": "bool",
          "name": "",
          "type": "bool"
        }
      ],
      "stateMutability": "view",
      "type": "function",
      "constant": true
    },
    {
      "inputs": [
        {
          "internalType": "bytes32",
          "name": "role",
          "type": "bytes32"
        },
        {
          "internalType": "address",
          "name": "account",
          "type": "address"
        }
      ],
      "name": "renounceRole",
      "outputs": [],
      "stateMutability": "nonpayable",
      "type": "function"
    },
    {
      "inputs": [
        {
          "internalType": "bytes32",
          "name": "role",
          "type": "bytes32"
        },
        {
          "internalType": "address",
          "name": "account",
          "type": "address"
        }
      ],
      "name": "revokeRole",
      "outputs": [],
      "stateMutability": "nonpayable",
      "type": "function"
    },
    {
      "inputs": [
        {
          "internalType": "bytes4",
          "name": "interfaceId",
          "type": "bytes4"
        }
      ],
      "name": "supportsInterface",
      "outputs": [
        {
          "internalType": "bool",
          "name": "",
          "type": "bool"
        }
      ],
      "stateMutability": "view",
      "type": "function",
      "constant": true
    },
    {
      "inputs": [],
      "name": "pause",
      "outputs": [],
      "stateMutability": "nonpayable",
      "type": "function"
    },
    {
      "inputs": [],
      "name": "unpause",
      "outputs": [],
      "stateMutability": "nonpayable",
      "type": "function"
    },
    {
      "inputs": [
        {
          "internalType": "uint256",
          "name": "_newPrice",
          "type": "uint256"
        }
      ],
      "name": "setTokenPrice",
      "outputs": [],
      "stateMutability": "nonpayable",
      "type": "function"
    },
    {
      "inputs": [
        {
          "internalType": "uint256",
          "name": "_tokenAmount",
          "type": "uint256"
        }
      ],
      "name": "buyTokens",
      "outputs": [],
      "stateMutability": "payable",
      "type": "function",
      "payable": true
    },
    {
      "inputs": [],
      "name": "getTokenPrice",
      "outputs": [
        {
          "internalType": "uint256",
          "name": "_tokenPrice",
          "type": "uint256"
        }
      ],
      "stateMutability": "view",
      "type": "function",
      "constant": true
    },
    {
      "inputs": [
        {
          "internalType": "address",
          "name": "_address",
          "type": "address"
        }
      ],
      "name": "getSpentValue",
      "outputs": [
        {
          "internalType": "uint256",
          "name": "_spentValue",
          "type": "uint256"
        }
      ],
      "stateMutability": "view",
      "type": "function",
      "constant": true
    },
    {
      "inputs": [],
      "name": "getMinWei",
      "outputs": [
        {
          "internalType": "uint256",
          "name": "_minValue",
          "type": "uint256"
        }
      ],
      "stateMutability": "view",
      "type": "function",
      "constant": true
    },
    {
      "inputs": [],
      "name": "getMaxWei",
      "outputs": [
        {
          "internalType": "uint256",
          "name": "_maxValue",
          "type": "uint256"
        }
      ],
      "stateMutability": "view",
      "type": "function",
      "constant": true
    }
  ],
  "bytecode": "0x60806040523480156200001157600080fd5b50604051620026cc380380620026cc83398181016040528101906200003791906200039e565b6000600160006101000a81548160ff02191690831515021790555060016002819055506200006f6000801b886200019660201b60201c565b87600360006101000a81548173ffffffffffffffffffffffffffffffffffffffff021916908373ffffffffffffffffffffffffffffffffffffffff16021790555084600560006101000a81548173ffffffffffffffffffffffffffffffffffffffff021916908373ffffffffffffffffffffffffffffffffffffffff1602179055508560048190555083600660006101000a81548173ffffffffffffffffffffffffffffffffffffffff021916908373ffffffffffffffffffffffffffffffffffffffff16021790555082600760006101000a81548173ffffffffffffffffffffffffffffffffffffffff021916908373ffffffffffffffffffffffffffffffffffffffff1602179055508160088190555080600981905550505050505050505062000467565b620001a882826200028760201b60201c565b6200028357600160008084815260200190815260200160002060000160008373ffffffffffffffffffffffffffffffffffffffff1673ffffffffffffffffffffffffffffffffffffffff16815260200190815260200160002060006101000a81548160ff02191690831515021790555062000228620002f160201b60201c565b73ffffffffffffffffffffffffffffffffffffffff168173ffffffffffffffffffffffffffffffffffffffff16837f2f8788117e7eff1d82e926ec794901d17c78024a50270940304540a733656f0d60405160405180910390a45b5050565b600080600084815260200190815260200160002060000160008373ffffffffffffffffffffffffffffffffffffffff1673ffffffffffffffffffffffffffffffffffffffff16815260200190815260200160002060009054906101000a900460ff16905092915050565b600033905090565b600080fd5b600073ffffffffffffffffffffffffffffffffffffffff82169050919050565b60006200032b82620002fe565b9050919050565b6200033d816200031e565b81146200034957600080fd5b50565b6000815190506200035d8162000332565b92915050565b6000819050919050565b620003788162000363565b81146200038457600080fd5b50565b60008151905062000398816200036d565b92915050565b600080600080600080600080610100898b031215620003c257620003c1620002f9565b5b6000620003d28b828c016200034c565b9850506020620003e58b828c016200034c565b9750506040620003f88b828c0162000387565b96505060606200040b8b828c016200034c565b95505060806200041e8b828c016200034c565b94505060a0620004318b828c016200034c565b93505060c0620004448b828c0162000387565b92505060e0620004578b828c0162000387565b9150509295985092959890939650565b61225580620004776000396000f3fe6080604052600436106100f35760003560e01c80635c975abb1161008a578063a217fddf11610059578063a217fddf146102f5578063c15b210114610320578063d341fd5d1461034b578063d547741f14610388576100f3565b80635c975abb1461024d5780636a61e5fc146102785780638456cb59146102a157806391d14854146102b8576100f3565b806336568abe116100c657806336568abe146101b75780633f4ba83a146101e05780634b94f50e146101f75780635a50c04114610222576100f3565b806301ffc9a7146100f8578063248a9ca3146101355780632f2ff15d146101725780633610724e1461019b575b600080fd5b34801561010457600080fd5b5061011f600480360381019061011a919061150c565b6103b1565b60405161012c9190611554565b60405180910390f35b34801561014157600080fd5b5061015c600480360381019061015791906115a5565b61042b565b60405161016991906115e1565b60405180910390f35b34801561017e57600080fd5b506101996004803603810190610194919061165a565b61044a565b005b6101b560048036038101906101b091906116d0565b61046b565b005b3480156101c357600080fd5b506101de60048036038101906101d9919061165a565b610902565b005b3480156101ec57600080fd5b506101f5610985565b005b34801561020357600080fd5b5061020c61099d565b604051610219919061170c565b60405180910390f35b34801561022e57600080fd5b506102376109a7565b604051610244919061170c565b60405180910390f35b34801561025957600080fd5b506102626109b1565b60405161026f9190611554565b60405180910390f35b34801561028457600080fd5b5061029f600480360381019061029a91906116d0565b6109c8565b005b3480156102ad57600080fd5b506102b66109e0565b005b3480156102c457600080fd5b506102df60048036038101906102da919061165a565b6109f8565b6040516102ec9190611554565b60405180910390f35b34801561030157600080fd5b5061030a610a62565b60405161031791906115e1565b60405180910390f35b34801561032c57600080fd5b50610335610a69565b604051610342919061170c565b60405180910390f35b34801561035757600080fd5b50610372600480360381019061036d9190611727565b610a73565b60405161037f919061170c565b60405180910390f35b34801561039457600080fd5b506103af60048036038101906103aa919061165a565b610abc565b005b60007f7965db0b000000000000000000000000000000000000000000000000000000007bffffffffffffffffffffffffffffffffffffffffffffffffffffffff1916827bffffffffffffffffffffffffffffffffffffffffffffffffffffffff19161480610424575061042382610add565b5b9050919050565b6000806000838152602001908152602001600020600101549050919050565b6104538261042b565b61045c81610b47565b6104668383610b5b565b505050565b610473610c3b565b61047b610c85565b6009543410156104c0576040517f08c379a00000000000000000000000000000000000000000000000000000000081526004016104b7906117d7565b60405180910390fd5b60085434600a60003373ffffffffffffffffffffffffffffffffffffffff1673ffffffffffffffffffffffffffffffffffffffff1681526020019081526020016000205461050e9190611826565b111561054f576040517f08c379a0000000000000000000000000000000000000000000000000000000008152600401610546906118cc565b60405180910390fd5b6000600360009054906101000a900473ffffffffffffffffffffffffffffffffffffffff1673ffffffffffffffffffffffffffffffffffffffff1663313ce5676040518163ffffffff1660e01b8152600401602060405180830381865afa1580156105be573d6000803e3d6000fd5b505050506040513d601f19601f820116820180604052508101906105e29190611925565b600a6105ee9190611a85565b826105f99190611ad0565b905080600360009054906101000a900473ffffffffffffffffffffffffffffffffffffffff1673ffffffffffffffffffffffffffffffffffffffff166370a08231600560009054906101000a900473ffffffffffffffffffffffffffffffffffffffff166040518263ffffffff1660e01b81526004016106799190611b21565b602060405180830381865afa158015610696573d6000803e3d6000fd5b505050506040513d601f19601f820116820180604052508101906106ba9190611b51565b116106fa576040517f08c379a00000000000000000000000000000000000000000000000000000000081526004016106f190611bca565b60405180910390fd5b60008061071260045485610cd290919063ffffffff16565b9150915081610756576040517f08c379a000000000000000000000000000000000000000000000000000000000815260040161074d90611c36565b60405180910390fd5b348114610798576040517f08c379a000000000000000000000000000000000000000000000000000000000815260040161078f90611cc8565b60405180910390fd5b34600a60003373ffffffffffffffffffffffffffffffffffffffff1673ffffffffffffffffffffffffffffffffffffffff168152602001908152602001600020546107e39190611826565b600a60003373ffffffffffffffffffffffffffffffffffffffff1673ffffffffffffffffffffffffffffffffffffffff1681526020019081526020016000208190555061082f34610d25565b600360009054906101000a900473ffffffffffffffffffffffffffffffffffffffff1673ffffffffffffffffffffffffffffffffffffffff166323b872dd600560009054906101000a900473ffffffffffffffffffffffffffffffffffffffff1633866040518463ffffffff1660e01b81526004016108b093929190611ce8565b6020604051808303816000875af11580156108cf573d6000803e3d6000fd5b505050506040513d601f19601f820116820180604052508101906108f39190611d4b565b505050506108ff610d3a565b50565b61090a610d44565b73ffffffffffffffffffffffffffffffffffffffff168173ffffffffffffffffffffffffffffffffffffffff1614610977576040517f08c379a000000000000000000000000000000000000000000000000000000000815260040161096e90611dea565b60405180910390fd5b6109818282610d4c565b5050565b6000801b61099281610b47565b61099a610e2d565b50565b6000600454905090565b6000600954905090565b6000600160009054906101000a900460ff16905090565b6000801b6109d581610b47565b816004819055505050565b6000801b6109ed81610b47565b6109f5610e90565b50565b600080600084815260200190815260200160002060000160008373ffffffffffffffffffffffffffffffffffffffff1673ffffffffffffffffffffffffffffffffffffffff16815260200190815260200160002060009054906101000a900460ff16905092915050565b6000801b81565b6000600854905090565b6000600a60008373ffffffffffffffffffffffffffffffffffffffff1673ffffffffffffffffffffffffffffffffffffffff168152602001908152602001600020549050919050565b610ac58261042b565b610ace81610b47565b610ad88383610d4c565b505050565b60007f01ffc9a7000000000000000000000000000000000000000000000000000000007bffffffffffffffffffffffffffffffffffffffffffffffffffffffff1916827bffffffffffffffffffffffffffffffffffffffffffffffffffffffff1916149050919050565b610b5881610b53610d44565b610ef2565b50565b610b6582826109f8565b610c3757600160008084815260200190815260200160002060000160008373ffffffffffffffffffffffffffffffffffffffff1673ffffffffffffffffffffffffffffffffffffffff16815260200190815260200160002060006101000a81548160ff021916908315150217905550610bdc610d44565b73ffffffffffffffffffffffffffffffffffffffff168173ffffffffffffffffffffffffffffffffffffffff16837f2f8788117e7eff1d82e926ec794901d17c78024a50270940304540a733656f0d60405160405180910390a45b5050565b610c436109b1565b15610c83576040517f08c379a0000000000000000000000000000000000000000000000000000000008152600401610c7a90611e56565b60405180910390fd5b565b6002805403610cc9576040517f08c379a0000000000000000000000000000000000000000000000000000000008152600401610cc090611ec2565b60405180910390fd5b60028081905550565b60008060008403610cea576001600091509150610d1e565b6000838502905083858281610d0257610d01611ee2565b5b0414610d15576000809250925050610d1e565b60018192509250505b9250929050565b610d2e81610f77565b610d378161109f565b50565b6001600281905550565b600033905090565b610d5682826109f8565b15610e2957600080600084815260200190815260200160002060000160008373ffffffffffffffffffffffffffffffffffffffff1673ffffffffffffffffffffffffffffffffffffffff16815260200190815260200160002060006101000a81548160ff021916908315150217905550610dce610d44565b73ffffffffffffffffffffffffffffffffffffffff168173ffffffffffffffffffffffffffffffffffffffff16837ff6391f5c32d9c69d2a47ea670b442974b53935d1edc7fd64eb21e047a839171b60405160405180910390a45b5050565b610e356111c7565b6000600160006101000a81548160ff0219169083151502179055507f5db9ee0a495bf2e6ff9c91a7834c1ba4fdd244a5e8aa4e537bd38aeae4b073aa610e79610d44565b604051610e869190611b21565b60405180910390a1565b610e98610c3b565b60018060006101000a81548160ff0219169083151502179055507f62e78cea01bee320cd4e420270b5ea74000d11b0c9f74754ebdbfc544b05a258610edb610d44565b604051610ee89190611b21565b60405180910390a1565b610efc82826109f8565b610f7357610f0981611210565b610f178360001c602061123d565b604051602001610f2892919061201a565b6040516020818303038152906040526040517f08c379a0000000000000000000000000000000000000000000000000000000008152600401610f6a919061209e565b60405180910390fd5b5050565b600080610f8f610bb884610cd290919063ffffffff16565b9150915081610fd3576040517f08c379a0000000000000000000000000000000000000000000000000000000008152600401610fca90611c36565b60405180910390fd5b600080610feb6127108461147990919063ffffffff16565b915091508161102f576040517f08c379a000000000000000000000000000000000000000000000000000000000815260040161102690611c36565b60405180910390fd5b600660009054906101000a900473ffffffffffffffffffffffffffffffffffffffff1673ffffffffffffffffffffffffffffffffffffffff166108fc829081150290604051600060405180830381858888f19350505050158015611097573d6000803e3d6000fd5b505050505050565b6000806110b7611b5884610cd290919063ffffffff16565b91509150816110fb576040517f08c379a00000000000000000000000000000000000000000000000000000000081526004016110f290611c36565b60405180910390fd5b6000806111136127108461147990919063ffffffff16565b9150915081611157576040517f08c379a000000000000000000000000000000000000000000000000000000000815260040161114e90611c36565b60405180910390fd5b600760009054906101000a900473ffffffffffffffffffffffffffffffffffffffff1673ffffffffffffffffffffffffffffffffffffffff166108fc829081150290604051600060405180830381858888f193505050501580156111bf573d6000803e3d6000fd5b505050505050565b6111cf6109b1565b61120e576040517f08c379a00000000000000000000000000000000000000000000000000000000081526004016112059061210c565b60405180910390fd5b565b60606112368273ffffffffffffffffffffffffffffffffffffffff16601460ff1661123d565b9050919050565b6060600060028360026112509190611ad0565b61125a9190611826565b67ffffffffffffffff8111156112735761127261212c565b5b6040519080825280601f01601f1916602001820160405280156112a55781602001600182028036833780820191505090505b5090507f3000000000000000000000000000000000000000000000000000000000000000816000815181106112dd576112dc61215b565b5b60200101907effffffffffffffffffffffffffffffffffffffffffffffffffffffffffffff1916908160001a9053507f7800000000000000000000000000000000000000000000000000000000000000816001815181106113415761134061215b565b5b60200101907effffffffffffffffffffffffffffffffffffffffffffffffffffffffffffff1916908160001a905350600060018460026113819190611ad0565b61138b9190611826565b90505b600181111561142b577f3031323334353637383961626364656600000000000000000000000000000000600f8616601081106113cd576113cc61215b565b5b1a60f81b8282815181106113e4576113e361215b565b5b60200101907effffffffffffffffffffffffffffffffffffffffffffffffffffffffffffff1916908160001a905350600485901c9450806114249061218a565b905061138e565b506000841461146f576040517f08c379a0000000000000000000000000000000000000000000000000000000008152600401611466906121ff565b60405180910390fd5b8091505092915050565b6000806000830361149057600080915091506114a8565b60018385816114a2576114a1611ee2565b5b04915091505b9250929050565b600080fd5b60007fffffffff0000000000000000000000000000000000000000000000000000000082169050919050565b6114e9816114b4565b81146114f457600080fd5b50565b600081359050611506816114e0565b92915050565b600060208284031215611522576115216114af565b5b6000611530848285016114f7565b91505092915050565b60008115159050919050565b61154e81611539565b82525050565b60006020820190506115696000830184611545565b92915050565b6000819050919050565b6115828161156f565b811461158d57600080fd5b50565b60008135905061159f81611579565b92915050565b6000602082840312156115bb576115ba6114af565b5b60006115c984828501611590565b91505092915050565b6115db8161156f565b82525050565b60006020820190506115f660008301846115d2565b92915050565b600073ffffffffffffffffffffffffffffffffffffffff82169050919050565b6000611627826115fc565b9050919050565b6116378161161c565b811461164257600080fd5b50565b6000813590506116548161162e565b92915050565b60008060408385031215611671576116706114af565b5b600061167f85828601611590565b925050602061169085828601611645565b9150509250929050565b6000819050919050565b6116ad8161169a565b81146116b857600080fd5b50565b6000813590506116ca816116a4565b92915050565b6000602082840312156116e6576116e56114af565b5b60006116f4848285016116bb565b91505092915050565b6117068161169a565b82525050565b600060208201905061172160008301846116fd565b92915050565b60006020828403121561173d5761173c6114af565b5b600061174b84828501611645565b91505092915050565b600082825260208201905092915050565b7f54686572652069732061206d696e696d756d20726571756972656420746f206260008201527f757920746f6b656e732e00000000000000000000000000000000000000000000602082015250565b60006117c1602a83611754565b91506117cc82611765565b604082019050919050565b600060208201905081810360008301526117f0816117b4565b9050919050565b7f4e487b7100000000000000000000000000000000000000000000000000000000600052601160045260246000fd5b60006118318261169a565b915061183c8361169a565b9250828201905080821115611854576118536117f7565b5b92915050565b7f546869732077616c6c657420616c726561647920626f7567687420746865206d60008201527f6178696d756d20746f6b656e7320616c6c6f7765642e00000000000000000000602082015250565b60006118b6603683611754565b91506118c18261185a565b604082019050919050565b600060208201905081810360008301526118e5816118a9565b9050919050565b600060ff82169050919050565b611902816118ec565b811461190d57600080fd5b50565b60008151905061191f816118f9565b92915050565b60006020828403121561193b5761193a6114af565b5b600061194984828501611910565b91505092915050565b60008160011c9050919050565b6000808291508390505b60018511156119a957808604811115611985576119846117f7565b5b60018516156119945780820291505b80810290506119a285611952565b9450611969565b94509492505050565b6000826119c25760019050611a7e565b816119d05760009050611a7e565b81600181146119e657600281146119f057611a1f565b6001915050611a7e565b60ff841115611a0257611a016117f7565b5b8360020a915084821115611a1957611a186117f7565b5b50611a7e565b5060208310610133831016604e8410600b8410161715611a545782820a905083811115611a4f57611a4e6117f7565b5b611a7e565b611a61848484600161195f565b92509050818404811115611a7857611a776117f7565b5b81810290505b9392505050565b6000611a908261169a565b9150611a9b836118ec565b9250611ac87fffffffffffffffffffffffffffffffffffffffffffffffffffffffffffffffff84846119b2565b905092915050565b6000611adb8261169a565b9150611ae68361169a565b9250828202611af48161169a565b91508282048414831517611b0b57611b0a6117f7565b5b5092915050565b611b1b8161161c565b82525050565b6000602082019050611b366000830184611b12565b92915050565b600081519050611b4b816116a4565b92915050565b600060208284031215611b6757611b666114af565b5b6000611b7584828501611b3c565b91505092915050565b7f4f7574206f662073746f636b2e00000000000000000000000000000000000000600082015250565b6000611bb4600d83611754565b9150611bbf82611b7e565b602082019050919050565b60006020820190508181036000830152611be381611ba7565b9050919050565b7f50726f626c656d20776974682073616665206d6174682e000000000000000000600082015250565b6000611c20601783611754565b9150611c2b82611bea565b602082019050919050565b60006020820190508181036000830152611c4f81611c13565b9050919050565b7f596f75206861766520746f2073656e642065786163746c79207468652070726960008201527f636520746f206275792074686520746f6b656e732e0000000000000000000000602082015250565b6000611cb2603583611754565b9150611cbd82611c56565b604082019050919050565b60006020820190508181036000830152611ce181611ca5565b9050919050565b6000606082019050611cfd6000830186611b12565b611d0a6020830185611b12565b611d1760408301846116fd565b949350505050565b611d2881611539565b8114611d3357600080fd5b50565b600081519050611d4581611d1f565b92915050565b600060208284031215611d6157611d606114af565b5b6000611d6f84828501611d36565b91505092915050565b7f416363657373436f6e74726f6c3a2063616e206f6e6c792072656e6f756e636560008201527f20726f6c657320666f722073656c660000000000000000000000000000000000602082015250565b6000611dd4602f83611754565b9150611ddf82611d78565b604082019050919050565b60006020820190508181036000830152611e0381611dc7565b9050919050565b7f5061757361626c653a2070617573656400000000000000000000000000000000600082015250565b6000611e40601083611754565b9150611e4b82611e0a565b602082019050919050565b60006020820190508181036000830152611e6f81611e33565b9050919050565b7f5265656e7472616e637947756172643a207265656e7472616e742063616c6c00600082015250565b6000611eac601f83611754565b9150611eb782611e76565b602082019050919050565b60006020820190508181036000830152611edb81611e9f565b9050919050565b7f4e487b7100000000000000000000000000000000000000000000000000000000600052601260045260246000fd5b600081905092915050565b7f416363657373436f6e74726f6c3a206163636f756e7420000000000000000000600082015250565b6000611f52601783611f11565b9150611f5d82611f1c565b601782019050919050565b600081519050919050565b60005b83811015611f91578082015181840152602081019050611f76565b60008484015250505050565b6000611fa882611f68565b611fb28185611f11565b9350611fc2818560208601611f73565b80840191505092915050565b7f206973206d697373696e6720726f6c6520000000000000000000000000000000600082015250565b6000612004601183611f11565b915061200f82611fce565b601182019050919050565b600061202582611f45565b91506120318285611f9d565b915061203c82611ff7565b91506120488284611f9d565b91508190509392505050565b6000601f19601f8301169050919050565b600061207082611f68565b61207a8185611754565b935061208a818560208601611f73565b61209381612054565b840191505092915050565b600060208201905081810360008301526120b88184612065565b905092915050565b7f5061757361626c653a206e6f7420706175736564000000000000000000000000600082015250565b60006120f6601483611754565b9150612101826120c0565b602082019050919050565b60006020820190508181036000830152612125816120e9565b9050919050565b7f4e487b7100000000000000000000000000000000000000000000000000000000600052604160045260246000fd5b7f4e487b7100000000000000000000000000000000000000000000000000000000600052603260045260246000fd5b60006121958261169a565b9150600082036121a8576121a76117f7565b5b600182039050919050565b7f537472696e67733a20686578206c656e67746820696e73756666696369656e74600082015250565b60006121e9602083611754565b91506121f4826121b3565b602082019050919050565b60006020820190508181036000830152612218816121dc565b905091905056fea2646970667358221220da80e2c0c69260820eea32627c64de328ea188a14f75915fc6800c2eb3f9c4a764736f6c63430008110033",
  "immutableReferences": {},
  "source": "// SPDX-License-Identifier: MIT\npragma solidity ^0.8.9;\n\nimport \"@openzeppelin/contracts/access/AccessControl.sol\";\nimport \"@openzeppelin/contracts/token/ERC20/IERC20.sol\";\nimport \"@openzeppelin/contracts/utils/math/SafeMath.sol\";\nimport \"@openzeppelin/contracts/security/Pausable.sol\";\nimport \"@openzeppelin/contracts/security/ReentrancyGuard.sol\";\n\nimport \"./interfaces/IERC20WVW.sol\";\n\ncontract WVWPreSale is AccessControl, Pausable, ReentrancyGuard {\n    using SafeMath for uint256;\n    IERC20WVW private token;\n    \n    uint256 private tokenPrice;\n    address private walletPreSale;\n    address private walletTeam;\n    address private walletLiquidityExchange;\n    uint256 private maxSpend;\n    uint256 private minSpend;\n\n    mapping(address => uint256) usersMaxSpend;\n\n\n    constructor(\n        address _token,\n        address _owner,\n        uint256 _tokenPrice,\n        address _walletPreSale,\n        address _walletTeam,\n        address _walletLiquidityExchange,\n        uint256 _maxSpend,\n        uint256 _minSpend\n    ) {\n        _grantRole(DEFAULT_ADMIN_ROLE, _owner);\n        token = IERC20WVW(_token);\n        walletPreSale = _walletPreSale;\n        tokenPrice = _tokenPrice;\n        walletTeam = _walletTeam;\n        walletLiquidityExchange = _walletLiquidityExchange;\n        maxSpend = _maxSpend;\n        minSpend = _minSpend;\n    }\n\n    function pause() public onlyRole(DEFAULT_ADMIN_ROLE) {\n        _pause();\n    }\n\n    function unpause() public onlyRole(DEFAULT_ADMIN_ROLE) {\n        _unpause();\n    }\n\n    function setTokenPrice(uint256 _newPrice)\n        public\n        onlyRole(DEFAULT_ADMIN_ROLE)\n    {\n        tokenPrice = _newPrice;\n    }\n\n    function buyTokens(uint256 _tokenAmount)\n        public\n        payable\n        whenNotPaused\n        nonReentrant\n    {\n        require(\n            msg.value >= minSpend,\n            \"There is a minimum required to buy tokens.\"\n        );\n        require(\n            (usersMaxSpend[msg.sender] + msg.value) <= maxSpend,\n            \"This wallet already bought the maximum tokens allowed.\"\n        );\n        uint256 formatToken = _tokenAmount * 10**token.decimals();\n        require(token.balanceOf(walletPreSale) > formatToken, \"Out of stock.\");\n        (bool safeMath, uint256 result) = _tokenAmount.tryMul(tokenPrice);\n        require(safeMath, \"Problem with safe math.\");\n        require(\n            result == msg.value,\n            \"You have to send exactly the price to buy the tokens.\"\n        );\n        usersMaxSpend[msg.sender] = usersMaxSpend[msg.sender] + msg.value;\n        paymentRulesWallets(msg.value);\n        token.transferFrom(walletPreSale, msg.sender, formatToken);\n    }\n\n    function paymentRulesWallets(uint256 _value) private {\n        sendMoneyToWalletTeam(_value);\n        sendMoneyToWalletLiquidityExchange(_value);\n    }   \n\n    function sendMoneyToWalletTeam(uint256 value) private {\n        // Send 30% to Team Wallet\n        (bool multSuccess, uint256 multResult) = value.tryMul(3000);\n        require(multSuccess, \"Problem with safe math.\");\n        (bool divSuccess, uint256 divResult) = multResult.tryDiv(10_000);\n        require(divSuccess, \"Problem with safe math.\");\n\n        payable(walletTeam).transfer(divResult);\n    }\n\n    function sendMoneyToWalletLiquidityExchange(uint256 value) private {\n        // Send 70% to Liquidity Wallet\n        (bool multSuccess, uint256 multResult) = value.tryMul(7000);\n        require(multSuccess, \"Problem with safe math.\");\n        (bool divSuccess, uint256 divResult) = multResult.tryDiv(10_000);\n        require(divSuccess, \"Problem with safe math.\");\n\n        payable(walletLiquidityExchange).transfer(divResult);\n    }\n\n    function getTokenPrice() public view returns (uint256 _tokenPrice) {\n        return tokenPrice;\n    }\n\n    function getSpentValue(address _address)\n        public\n        view\n        returns (uint256 _spentValue)\n    {\n        return usersMaxSpend[_address];\n    }\n\n    function getMinWei()\n        public\n        view\n        returns (uint256 _minValue)\n    {\n        return minSpend;\n    }\n\n    function getMaxWei()\n        public\n        view\n        returns (uint256 _maxValue)\n    {\n        return maxSpend;\n    }\n    \n}\n",
  "sourcePath": "/home/luigi/wvw/Truffle/contracts/WVWPreSale.sol",
  "compiler": {
    "name": "solc",
    "version": "0.8.17+commit.8df45f5f.Emscripten.clang"
  },
  "schemaVersion": "3.4.11",
  "updatedAt": "2023-01-21T22:04:33.566Z",
  "networkType": "ethereum",
  "devdoc": {
    "kind": "dev",
    "methods": {
      "getRoleAdmin(bytes32)": {
        "details": "Returns the admin role that controls `role`. See {grantRole} and {revokeRole}. To change a role's admin, use {_setRoleAdmin}."
      },
      "grantRole(bytes32,address)": {
        "details": "Grants `role` to `account`. If `account` had not been already granted `role`, emits a {RoleGranted} event. Requirements: - the caller must have ``role``'s admin role. May emit a {RoleGranted} event."
      },
      "hasRole(bytes32,address)": {
        "details": "Returns `true` if `account` has been granted `role`."
      },
      "paused()": {
        "details": "Returns true if the contract is paused, and false otherwise."
      },
      "renounceRole(bytes32,address)": {
        "details": "Revokes `role` from the calling account. Roles are often managed via {grantRole} and {revokeRole}: this function's purpose is to provide a mechanism for accounts to lose their privileges if they are compromised (such as when a trusted device is misplaced). If the calling account had been revoked `role`, emits a {RoleRevoked} event. Requirements: - the caller must be `account`. May emit a {RoleRevoked} event."
      },
      "revokeRole(bytes32,address)": {
        "details": "Revokes `role` from `account`. If `account` had been granted `role`, emits a {RoleRevoked} event. Requirements: - the caller must have ``role``'s admin role. May emit a {RoleRevoked} event."
      },
      "supportsInterface(bytes4)": {
        "details": "See {IERC165-supportsInterface}."
      }
    },
    "version": 1
  },
  "userdoc": {
    "kind": "user",
    "methods": {},
    "version": 1
  }
}