{
  "contractName": "WVWPreSale",
  "abi": [
    {
      "inputs": [
        {
          "internalType": "address",
          "name": "_token",
          "type": "address"
        },
        {
          "internalType": "address",
          "name": "_owner",
          "type": "address"
        },
        {
          "internalType": "uint256",
          "name": "_tokenPrice",
          "type": "uint256"
        },
        {
          "internalType": "address",
          "name": "_walletTeam",
          "type": "address"
        },
        {
          "internalType": "address",
          "name": "_walletLiquidityExchange",
          "type": "address"
        },
        {
          "internalType": "uint256",
          "name": "_maxSpend",
          "type": "uint256"
        },
        {
          "internalType": "uint256",
          "name": "_minSpend",
          "type": "uint256"
        }
      ],
      "stateMutability": "nonpayable",
      "type": "constructor"
    },
    {
      "anonymous": false,
      "inputs": [
        {
          "indexed": false,
          "internalType": "address",
          "name": "account",
          "type": "address"
        }
      ],
      "name": "Paused",
      "type": "event"
    },
    {
      "anonymous": false,
      "inputs": [
        {
          "indexed": true,
          "internalType": "bytes32",
          "name": "role",
          "type": "bytes32"
        },
        {
          "indexed": true,
          "internalType": "bytes32",
          "name": "previousAdminRole",
          "type": "bytes32"
        },
        {
          "indexed": true,
          "internalType": "bytes32",
          "name": "newAdminRole",
          "type": "bytes32"
        }
      ],
      "name": "RoleAdminChanged",
      "type": "event"
    },
    {
      "anonymous": false,
      "inputs": [
        {
          "indexed": true,
          "internalType": "bytes32",
          "name": "role",
          "type": "bytes32"
        },
        {
          "indexed": true,
          "internalType": "address",
          "name": "account",
          "type": "address"
        },
        {
          "indexed": true,
          "internalType": "address",
          "name": "sender",
          "type": "address"
        }
      ],
      "name": "RoleGranted",
      "type": "event"
    },
    {
      "anonymous": false,
      "inputs": [
        {
          "indexed": true,
          "internalType": "bytes32",
          "name": "role",
          "type": "bytes32"
        },
        {
          "indexed": true,
          "internalType": "address",
          "name": "account",
          "type": "address"
        },
        {
          "indexed": true,
          "internalType": "address",
          "name": "sender",
          "type": "address"
        }
      ],
      "name": "RoleRevoked",
      "type": "event"
    },
    {
      "anonymous": false,
      "inputs": [
        {
          "indexed": false,
          "internalType": "address",
          "name": "account",
          "type": "address"
        }
      ],
      "name": "Unpaused",
      "type": "event"
    },
    {
      "inputs": [],
      "name": "DEFAULT_ADMIN_ROLE",
      "outputs": [
        {
          "internalType": "bytes32",
          "name": "",
          "type": "bytes32"
        }
      ],
      "stateMutability": "view",
      "type": "function",
      "constant": true
    },
    {
      "inputs": [
        {
          "internalType": "bytes32",
          "name": "role",
          "type": "bytes32"
        }
      ],
      "name": "getRoleAdmin",
      "outputs": [
        {
          "internalType": "bytes32",
          "name": "",
          "type": "bytes32"
        }
      ],
      "stateMutability": "view",
      "type": "function",
      "constant": true
    },
    {
      "inputs": [
        {
          "internalType": "bytes32",
          "name": "role",
          "type": "bytes32"
        },
        {
          "internalType": "address",
          "name": "account",
          "type": "address"
        }
      ],
      "name": "grantRole",
      "outputs": [],
      "stateMutability": "nonpayable",
      "type": "function"
    },
    {
      "inputs": [
        {
          "internalType": "bytes32",
          "name": "role",
          "type": "bytes32"
        },
        {
          "internalType": "address",
          "name": "account",
          "type": "address"
        }
      ],
      "name": "hasRole",
      "outputs": [
        {
          "internalType": "bool",
          "name": "",
          "type": "bool"
        }
      ],
      "stateMutability": "view",
      "type": "function",
      "constant": true
    },
    {
      "inputs": [],
      "name": "paused",
      "outputs": [
        {
          "internalType": "bool",
          "name": "",
          "type": "bool"
        }
      ],
      "stateMutability": "view",
      "type": "function",
      "constant": true
    },
    {
      "inputs": [
        {
          "internalType": "bytes32",
          "name": "role",
          "type": "bytes32"
        },
        {
          "internalType": "address",
          "name": "account",
          "type": "address"
        }
      ],
      "name": "renounceRole",
      "outputs": [],
      "stateMutability": "nonpayable",
      "type": "function"
    },
    {
      "inputs": [
        {
          "internalType": "bytes32",
          "name": "role",
          "type": "bytes32"
        },
        {
          "internalType": "address",
          "name": "account",
          "type": "address"
        }
      ],
      "name": "revokeRole",
      "outputs": [],
      "stateMutability": "nonpayable",
      "type": "function"
    },
    {
      "inputs": [
        {
          "internalType": "bytes4",
          "name": "interfaceId",
          "type": "bytes4"
        }
      ],
      "name": "supportsInterface",
      "outputs": [
        {
          "internalType": "bool",
          "name": "",
          "type": "bool"
        }
      ],
      "stateMutability": "view",
      "type": "function",
      "constant": true
    },
    {
      "inputs": [],
      "name": "token",
      "outputs": [
        {
          "internalType": "contract IERC20WVW",
          "name": "",
          "type": "address"
        }
      ],
      "stateMutability": "view",
      "type": "function",
      "constant": true
    },
    {
      "inputs": [],
      "name": "pause",
      "outputs": [],
      "stateMutability": "nonpayable",
      "type": "function"
    },
    {
      "inputs": [],
      "name": "unpause",
      "outputs": [],
      "stateMutability": "nonpayable",
      "type": "function"
    },
    {
      "inputs": [
        {
          "internalType": "uint256",
          "name": "_newPrice",
          "type": "uint256"
        }
      ],
      "name": "setTokenPrice",
      "outputs": [],
      "stateMutability": "nonpayable",
      "type": "function"
    },
    {
      "inputs": [
        {
          "internalType": "uint256",
          "name": "_tokenAmount",
          "type": "uint256"
        }
      ],
      "name": "buyTokens",
      "outputs": [],
      "stateMutability": "payable",
      "type": "function",
      "payable": true
    },
    {
      "inputs": [],
      "name": "returnTokensToWallet",
      "outputs": [],
      "stateMutability": "nonpayable",
      "type": "function"
    },
    {
      "inputs": [],
      "name": "getTokenPrice",
      "outputs": [
        {
          "internalType": "uint256",
          "name": "_tokenPrice",
          "type": "uint256"
        }
      ],
      "stateMutability": "view",
      "type": "function",
      "constant": true
    },
    {
      "inputs": [
        {
          "internalType": "address",
          "name": "_address",
          "type": "address"
        }
      ],
      "name": "getSpentValue",
      "outputs": [
        {
          "internalType": "uint256",
          "name": "_spentValue",
          "type": "uint256"
        }
      ],
      "stateMutability": "view",
      "type": "function",
      "constant": true
    },
    {
      "inputs": [],
      "name": "getMinWei",
      "outputs": [
        {
          "internalType": "uint256",
          "name": "_minValue",
          "type": "uint256"
        }
      ],
      "stateMutability": "view",
      "type": "function",
      "constant": true
    },
    {
      "inputs": [],
      "name": "getMaxWei",
      "outputs": [
        {
          "internalType": "uint256",
          "name": "_maxValue",
          "type": "uint256"
        }
      ],
      "stateMutability": "view",
      "type": "function",
      "constant": true
    }
  ],
  "bytecode": "0x60806040523480156200001157600080fd5b506040516200289b3803806200289b833981810160405281019062000037919062000371565b6000600160006101000a81548160ff02191690831515021790555060016002819055506200006f6000801b336200016960201b60201c565b620000846000801b876200016960201b60201c565b86600360006101000a81548173ffffffffffffffffffffffffffffffffffffffff021916908373ffffffffffffffffffffffffffffffffffffffff1602179055508460048190555083600560006101000a81548173ffffffffffffffffffffffffffffffffffffffff021916908373ffffffffffffffffffffffffffffffffffffffff16021790555082600660006101000a81548173ffffffffffffffffffffffffffffffffffffffff021916908373ffffffffffffffffffffffffffffffffffffffff16021790555081600881905550806009819055505050505050505062000424565b6200017b82826200025a60201b60201c565b6200025657600160008084815260200190815260200160002060000160008373ffffffffffffffffffffffffffffffffffffffff1673ffffffffffffffffffffffffffffffffffffffff16815260200190815260200160002060006101000a81548160ff021916908315150217905550620001fb620002c460201b60201c565b73ffffffffffffffffffffffffffffffffffffffff168173ffffffffffffffffffffffffffffffffffffffff16837f2f8788117e7eff1d82e926ec794901d17c78024a50270940304540a733656f0d60405160405180910390a45b5050565b600080600084815260200190815260200160002060000160008373ffffffffffffffffffffffffffffffffffffffff1673ffffffffffffffffffffffffffffffffffffffff16815260200190815260200160002060009054906101000a900460ff16905092915050565b600033905090565b600080fd5b600073ffffffffffffffffffffffffffffffffffffffff82169050919050565b6000620002fe82620002d1565b9050919050565b6200031081620002f1565b81146200031c57600080fd5b50565b600081519050620003308162000305565b92915050565b6000819050919050565b6200034b8162000336565b81146200035757600080fd5b50565b6000815190506200036b8162000340565b92915050565b600080600080600080600060e0888a031215620003935762000392620002cc565b5b6000620003a38a828b016200031f565b9750506020620003b68a828b016200031f565b9650506040620003c98a828b016200035a565b9550506060620003dc8a828b016200031f565b9450506080620003ef8a828b016200031f565b93505060a0620004028a828b016200035a565b92505060c0620004158a828b016200035a565b91505092959891949750929550565b61246780620004346000396000f3fe6080604052600436106101095760003560e01c80636a61e5fc11610095578063c15b210111610064578063c15b210114610336578063d017c2b414610361578063d341fd5d14610378578063d547741f146103b5578063fc0c546a146103de57610109565b80636a61e5fc1461028e5780638456cb59146102b757806391d14854146102ce578063a217fddf1461030b57610109565b806336568abe116100dc57806336568abe146101cd5780633f4ba83a146101f65780634b94f50e1461020d5780635a50c041146102385780635c975abb1461026357610109565b806301ffc9a71461010e578063248a9ca31461014b5780632f2ff15d146101885780633610724e146101b1575b600080fd5b34801561011a57600080fd5b50610135600480360381019061013091906116b2565b610409565b60405161014291906116fa565b60405180910390f35b34801561015757600080fd5b50610172600480360381019061016d919061174b565b610483565b60405161017f9190611787565b60405180910390f35b34801561019457600080fd5b506101af60048036038101906101aa9190611800565b6104a2565b005b6101cb60048036038101906101c69190611876565b6104c3565b005b3480156101d957600080fd5b506101f460048036038101906101ef9190611800565b610914565b005b34801561020257600080fd5b5061020b610997565b005b34801561021957600080fd5b506102226109af565b60405161022f91906118b2565b60405180910390f35b34801561024457600080fd5b5061024d6109b9565b60405161025a91906118b2565b60405180910390f35b34801561026f57600080fd5b506102786109c3565b60405161028591906116fa565b60405180910390f35b34801561029a57600080fd5b506102b560048036038101906102b09190611876565b6109da565b005b3480156102c357600080fd5b506102cc6109f2565b005b3480156102da57600080fd5b506102f560048036038101906102f09190611800565b610a0a565b60405161030291906116fa565b60405180910390f35b34801561031757600080fd5b50610320610a74565b60405161032d9190611787565b60405180910390f35b34801561034257600080fd5b5061034b610a7b565b60405161035891906118b2565b60405180910390f35b34801561036d57600080fd5b50610376610a85565b005b34801561038457600080fd5b5061039f600480360381019061039a91906118cd565b610bf3565b6040516103ac91906118b2565b60405180910390f35b3480156103c157600080fd5b506103dc60048036038101906103d79190611800565b610c3c565b005b3480156103ea57600080fd5b506103f3610c5d565b6040516104009190611959565b60405180910390f35b60007f7965db0b000000000000000000000000000000000000000000000000000000007bffffffffffffffffffffffffffffffffffffffffffffffffffffffff1916827bffffffffffffffffffffffffffffffffffffffffffffffffffffffff1916148061047c575061047b82610c83565b5b9050919050565b6000806000838152602001908152602001600020600101549050919050565b6104ab82610483565b6104b481610ced565b6104be8383610d01565b505050565b6104cb610de1565b6104d3610e2b565b600954341015610518576040517f08c379a000000000000000000000000000000000000000000000000000000000815260040161050f906119f7565b60405180910390fd5b60085434600760003373ffffffffffffffffffffffffffffffffffffffff1673ffffffffffffffffffffffffffffffffffffffff168152602001908152602001600020546105669190611a46565b11156105a7576040517f08c379a000000000000000000000000000000000000000000000000000000000815260040161059e90611aec565b60405180910390fd5b6000600360009054906101000a900473ffffffffffffffffffffffffffffffffffffffff1673ffffffffffffffffffffffffffffffffffffffff1663313ce5676040518163ffffffff1660e01b8152600401602060405180830381865afa158015610616573d6000803e3d6000fd5b505050506040513d601f19601f8201168201806040525081019061063a9190611b45565b600a6106469190611ca5565b826106519190611cf0565b905080600360009054906101000a900473ffffffffffffffffffffffffffffffffffffffff1673ffffffffffffffffffffffffffffffffffffffff166370a08231306040518263ffffffff1660e01b81526004016106af9190611d41565b602060405180830381865afa1580156106cc573d6000803e3d6000fd5b505050506040513d601f19601f820116820180604052508101906106f09190611d71565b11610730576040517f08c379a000000000000000000000000000000000000000000000000000000000815260040161072790611dea565b60405180910390fd5b60008061074860045485610e7890919063ffffffff16565b915091508161078c576040517f08c379a000000000000000000000000000000000000000000000000000000000815260040161078390611e56565b60405180910390fd5b3481146107ce576040517f08c379a00000000000000000000000000000000000000000000000000000000081526004016107c590611ee8565b60405180910390fd5b34600760003373ffffffffffffffffffffffffffffffffffffffff1673ffffffffffffffffffffffffffffffffffffffff168152602001908152602001600020546108199190611a46565b600760003373ffffffffffffffffffffffffffffffffffffffff1673ffffffffffffffffffffffffffffffffffffffff1681526020019081526020016000208190555061086534610ecb565b600360009054906101000a900473ffffffffffffffffffffffffffffffffffffffff1673ffffffffffffffffffffffffffffffffffffffff1663a9059cbb33856040518363ffffffff1660e01b81526004016108c2929190611f08565b6020604051808303816000875af11580156108e1573d6000803e3d6000fd5b505050506040513d601f19601f820116820180604052508101906109059190611f5d565b50505050610911610ee0565b50565b61091c610eea565b73ffffffffffffffffffffffffffffffffffffffff168173ffffffffffffffffffffffffffffffffffffffff1614610989576040517f08c379a000000000000000000000000000000000000000000000000000000000815260040161098090611ffc565b60405180910390fd5b6109938282610ef2565b5050565b6000801b6109a481610ced565b6109ac610fd3565b50565b6000600454905090565b6000600954905090565b6000600160009054906101000a900460ff16905090565b6000801b6109e781610ced565b816004819055505050565b6000801b6109ff81610ced565b610a07611036565b50565b600080600084815260200190815260200160002060000160008373ffffffffffffffffffffffffffffffffffffffff1673ffffffffffffffffffffffffffffffffffffffff16815260200190815260200160002060009054906101000a900460ff16905092915050565b6000801b81565b6000600854905090565b6000801b610a9281610ced565b600360009054906101000a900473ffffffffffffffffffffffffffffffffffffffff1673ffffffffffffffffffffffffffffffffffffffff1663a9059cbb600560009054906101000a900473ffffffffffffffffffffffffffffffffffffffff16600360009054906101000a900473ffffffffffffffffffffffffffffffffffffffff1673ffffffffffffffffffffffffffffffffffffffff166370a08231306040518263ffffffff1660e01b8152600401610b4e9190611d41565b602060405180830381865afa158015610b6b573d6000803e3d6000fd5b505050506040513d601f19601f82011682018060405250810190610b8f9190611d71565b6040518363ffffffff1660e01b8152600401610bac929190611f08565b6020604051808303816000875af1158015610bcb573d6000803e3d6000fd5b505050506040513d601f19601f82011682018060405250810190610bef9190611f5d565b5050565b6000600760008373ffffffffffffffffffffffffffffffffffffffff1673ffffffffffffffffffffffffffffffffffffffff168152602001908152602001600020549050919050565b610c4582610483565b610c4e81610ced565b610c588383610ef2565b505050565b600360009054906101000a900473ffffffffffffffffffffffffffffffffffffffff1681565b60007f01ffc9a7000000000000000000000000000000000000000000000000000000007bffffffffffffffffffffffffffffffffffffffffffffffffffffffff1916827bffffffffffffffffffffffffffffffffffffffffffffffffffffffff1916149050919050565b610cfe81610cf9610eea565b611098565b50565b610d0b8282610a0a565b610ddd57600160008084815260200190815260200160002060000160008373ffffffffffffffffffffffffffffffffffffffff1673ffffffffffffffffffffffffffffffffffffffff16815260200190815260200160002060006101000a81548160ff021916908315150217905550610d82610eea565b73ffffffffffffffffffffffffffffffffffffffff168173ffffffffffffffffffffffffffffffffffffffff16837f2f8788117e7eff1d82e926ec794901d17c78024a50270940304540a733656f0d60405160405180910390a45b5050565b610de96109c3565b15610e29576040517f08c379a0000000000000000000000000000000000000000000000000000000008152600401610e2090612068565b60405180910390fd5b565b6002805403610e6f576040517f08c379a0000000000000000000000000000000000000000000000000000000008152600401610e66906120d4565b60405180910390fd5b60028081905550565b60008060008403610e90576001600091509150610ec4565b6000838502905083858281610ea857610ea76120f4565b5b0414610ebb576000809250925050610ec4565b60018192509250505b9250929050565b610ed48161111d565b610edd81611245565b50565b6001600281905550565b600033905090565b610efc8282610a0a565b15610fcf57600080600084815260200190815260200160002060000160008373ffffffffffffffffffffffffffffffffffffffff1673ffffffffffffffffffffffffffffffffffffffff16815260200190815260200160002060006101000a81548160ff021916908315150217905550610f74610eea565b73ffffffffffffffffffffffffffffffffffffffff168173ffffffffffffffffffffffffffffffffffffffff16837ff6391f5c32d9c69d2a47ea670b442974b53935d1edc7fd64eb21e047a839171b60405160405180910390a45b5050565b610fdb61136d565b6000600160006101000a81548160ff0219169083151502179055507f5db9ee0a495bf2e6ff9c91a7834c1ba4fdd244a5e8aa4e537bd38aeae4b073aa61101f610eea565b60405161102c9190611d41565b60405180910390a1565b61103e610de1565b60018060006101000a81548160ff0219169083151502179055507f62e78cea01bee320cd4e420270b5ea74000d11b0c9f74754ebdbfc544b05a258611081610eea565b60405161108e9190611d41565b60405180910390a1565b6110a28282610a0a565b611119576110af816113b6565b6110bd8360001c60206113e3565b6040516020016110ce92919061222c565b6040516020818303038152906040526040517f08c379a000000000000000000000000000000000000000000000000000000000815260040161111091906122b0565b60405180910390fd5b5050565b600080611135610bb884610e7890919063ffffffff16565b9150915081611179576040517f08c379a000000000000000000000000000000000000000000000000000000000815260040161117090611e56565b60405180910390fd5b6000806111916127108461161f90919063ffffffff16565b91509150816111d5576040517f08c379a00000000000000000000000000000000000000000000000000000000081526004016111cc90611e56565b60405180910390fd5b600560009054906101000a900473ffffffffffffffffffffffffffffffffffffffff1673ffffffffffffffffffffffffffffffffffffffff166108fc829081150290604051600060405180830381858888f1935050505015801561123d573d6000803e3d6000fd5b505050505050565b60008061125d611b5884610e7890919063ffffffff16565b91509150816112a1576040517f08c379a000000000000000000000000000000000000000000000000000000000815260040161129890611e56565b60405180910390fd5b6000806112b96127108461161f90919063ffffffff16565b91509150816112fd576040517f08c379a00000000000000000000000000000000000000000000000000000000081526004016112f490611e56565b60405180910390fd5b600660009054906101000a900473ffffffffffffffffffffffffffffffffffffffff1673ffffffffffffffffffffffffffffffffffffffff166108fc829081150290604051600060405180830381858888f19350505050158015611365573d6000803e3d6000fd5b505050505050565b6113756109c3565b6113b4576040517f08c379a00000000000000000000000000000000000000000000000000000000081526004016113ab9061231e565b60405180910390fd5b565b60606113dc8273ffffffffffffffffffffffffffffffffffffffff16601460ff166113e3565b9050919050565b6060600060028360026113f69190611cf0565b6114009190611a46565b67ffffffffffffffff8111156114195761141861233e565b5b6040519080825280601f01601f19166020018201604052801561144b5781602001600182028036833780820191505090505b5090507f3000000000000000000000000000000000000000000000000000000000000000816000815181106114835761148261236d565b5b60200101907effffffffffffffffffffffffffffffffffffffffffffffffffffffffffffff1916908160001a9053507f7800000000000000000000000000000000000000000000000000000000000000816001815181106114e7576114e661236d565b5b60200101907effffffffffffffffffffffffffffffffffffffffffffffffffffffffffffff1916908160001a905350600060018460026115279190611cf0565b6115319190611a46565b90505b60018111156115d1577f3031323334353637383961626364656600000000000000000000000000000000600f8616601081106115735761157261236d565b5b1a60f81b82828151811061158a5761158961236d565b5b60200101907effffffffffffffffffffffffffffffffffffffffffffffffffffffffffffff1916908160001a905350600485901c9450806115ca9061239c565b9050611534565b5060008414611615576040517f08c379a000000000000000000000000000000000000000000000000000000000815260040161160c90612411565b60405180910390fd5b8091505092915050565b60008060008303611636576000809150915061164e565b6001838581611648576116476120f4565b5b04915091505b9250929050565b600080fd5b60007fffffffff0000000000000000000000000000000000000000000000000000000082169050919050565b61168f8161165a565b811461169a57600080fd5b50565b6000813590506116ac81611686565b92915050565b6000602082840312156116c8576116c7611655565b5b60006116d68482850161169d565b91505092915050565b60008115159050919050565b6116f4816116df565b82525050565b600060208201905061170f60008301846116eb565b92915050565b6000819050919050565b61172881611715565b811461173357600080fd5b50565b6000813590506117458161171f565b92915050565b60006020828403121561176157611760611655565b5b600061176f84828501611736565b91505092915050565b61178181611715565b82525050565b600060208201905061179c6000830184611778565b92915050565b600073ffffffffffffffffffffffffffffffffffffffff82169050919050565b60006117cd826117a2565b9050919050565b6117dd816117c2565b81146117e857600080fd5b50565b6000813590506117fa816117d4565b92915050565b6000806040838503121561181757611816611655565b5b600061182585828601611736565b9250506020611836858286016117eb565b9150509250929050565b6000819050919050565b61185381611840565b811461185e57600080fd5b50565b6000813590506118708161184a565b92915050565b60006020828403121561188c5761188b611655565b5b600061189a84828501611861565b91505092915050565b6118ac81611840565b82525050565b60006020820190506118c760008301846118a3565b92915050565b6000602082840312156118e3576118e2611655565b5b60006118f1848285016117eb565b91505092915050565b6000819050919050565b600061191f61191a611915846117a2565b6118fa565b6117a2565b9050919050565b600061193182611904565b9050919050565b600061194382611926565b9050919050565b61195381611938565b82525050565b600060208201905061196e600083018461194a565b92915050565b600082825260208201905092915050565b7f54686572652069732061206d696e696d756d20726571756972656420746f206260008201527f757920746f6b656e732e00000000000000000000000000000000000000000000602082015250565b60006119e1602a83611974565b91506119ec82611985565b604082019050919050565b60006020820190508181036000830152611a10816119d4565b9050919050565b7f4e487b7100000000000000000000000000000000000000000000000000000000600052601160045260246000fd5b6000611a5182611840565b9150611a5c83611840565b9250828201905080821115611a7457611a73611a17565b5b92915050565b7f546869732077616c6c657420616c726561647920626f7567687420746865206d60008201527f6178696d756d20746f6b656e7320616c6c6f7765642e00000000000000000000602082015250565b6000611ad6603683611974565b9150611ae182611a7a565b604082019050919050565b60006020820190508181036000830152611b0581611ac9565b9050919050565b600060ff82169050919050565b611b2281611b0c565b8114611b2d57600080fd5b50565b600081519050611b3f81611b19565b92915050565b600060208284031215611b5b57611b5a611655565b5b6000611b6984828501611b30565b91505092915050565b60008160011c9050919050565b6000808291508390505b6001851115611bc957808604811115611ba557611ba4611a17565b5b6001851615611bb45780820291505b8081029050611bc285611b72565b9450611b89565b94509492505050565b600082611be25760019050611c9e565b81611bf05760009050611c9e565b8160018114611c065760028114611c1057611c3f565b6001915050611c9e565b60ff841115611c2257611c21611a17565b5b8360020a915084821115611c3957611c38611a17565b5b50611c9e565b5060208310610133831016604e8410600b8410161715611c745782820a905083811115611c6f57611c6e611a17565b5b611c9e565b611c818484846001611b7f565b92509050818404811115611c9857611c97611a17565b5b81810290505b9392505050565b6000611cb082611840565b9150611cbb83611b0c565b9250611ce87fffffffffffffffffffffffffffffffffffffffffffffffffffffffffffffffff8484611bd2565b905092915050565b6000611cfb82611840565b9150611d0683611840565b9250828202611d1481611840565b91508282048414831517611d2b57611d2a611a17565b5b5092915050565b611d3b816117c2565b82525050565b6000602082019050611d566000830184611d32565b92915050565b600081519050611d6b8161184a565b92915050565b600060208284031215611d8757611d86611655565b5b6000611d9584828501611d5c565b91505092915050565b7f4f7574206f662073746f636b2e00000000000000000000000000000000000000600082015250565b6000611dd4600d83611974565b9150611ddf82611d9e565b602082019050919050565b60006020820190508181036000830152611e0381611dc7565b9050919050565b7f50726f626c656d20776974682073616665206d6174682e000000000000000000600082015250565b6000611e40601783611974565b9150611e4b82611e0a565b602082019050919050565b60006020820190508181036000830152611e6f81611e33565b9050919050565b7f596f75206861766520746f2073656e642065786163746c79207468652070726960008201527f636520746f206275792074686520746f6b656e732e0000000000000000000000602082015250565b6000611ed2603583611974565b9150611edd82611e76565b604082019050919050565b60006020820190508181036000830152611f0181611ec5565b9050919050565b6000604082019050611f1d6000830185611d32565b611f2a60208301846118a3565b9392505050565b611f3a816116df565b8114611f4557600080fd5b50565b600081519050611f5781611f31565b92915050565b600060208284031215611f7357611f72611655565b5b6000611f8184828501611f48565b91505092915050565b7f416363657373436f6e74726f6c3a2063616e206f6e6c792072656e6f756e636560008201527f20726f6c657320666f722073656c660000000000000000000000000000000000602082015250565b6000611fe6602f83611974565b9150611ff182611f8a565b604082019050919050565b6000602082019050818103600083015261201581611fd9565b9050919050565b7f5061757361626c653a2070617573656400000000000000000000000000000000600082015250565b6000612052601083611974565b915061205d8261201c565b602082019050919050565b6000602082019050818103600083015261208181612045565b9050919050565b7f5265656e7472616e637947756172643a207265656e7472616e742063616c6c00600082015250565b60006120be601f83611974565b91506120c982612088565b602082019050919050565b600060208201905081810360008301526120ed816120b1565b9050919050565b7f4e487b7100000000000000000000000000000000000000000000000000000000600052601260045260246000fd5b600081905092915050565b7f416363657373436f6e74726f6c3a206163636f756e7420000000000000000000600082015250565b6000612164601783612123565b915061216f8261212e565b601782019050919050565b600081519050919050565b60005b838110156121a3578082015181840152602081019050612188565b60008484015250505050565b60006121ba8261217a565b6121c48185612123565b93506121d4818560208601612185565b80840191505092915050565b7f206973206d697373696e6720726f6c6520000000000000000000000000000000600082015250565b6000612216601183612123565b9150612221826121e0565b601182019050919050565b600061223782612157565b915061224382856121af565b915061224e82612209565b915061225a82846121af565b91508190509392505050565b6000601f19601f8301169050919050565b60006122828261217a565b61228c8185611974565b935061229c818560208601612185565b6122a581612266565b840191505092915050565b600060208201905081810360008301526122ca8184612277565b905092915050565b7f5061757361626c653a206e6f7420706175736564000000000000000000000000600082015250565b6000612308601483611974565b9150612313826122d2565b602082019050919050565b60006020820190508181036000830152612337816122fb565b9050919050565b7f4e487b7100000000000000000000000000000000000000000000000000000000600052604160045260246000fd5b7f4e487b7100000000000000000000000000000000000000000000000000000000600052603260045260246000fd5b60006123a782611840565b9150600082036123ba576123b9611a17565b5b600182039050919050565b7f537472696e67733a20686578206c656e67746820696e73756666696369656e74600082015250565b60006123fb602083611974565b9150612406826123c5565b602082019050919050565b6000602082019050818103600083015261242a816123ee565b905091905056fea2646970667358221220560eb2509890200fcfb8e9e4dba815a4083c4d8bcadb46ca1b5be7a8f02a43d764736f6c63430008110033",
  "immutableReferences": {},
  "source": "// SPDX-License-Identifier: MIT\npragma solidity ^0.8.9;\n\nimport \"@openzeppelin/contracts/access/AccessControl.sol\";\nimport \"@openzeppelin/contracts/token/ERC20/IERC20.sol\";\nimport \"@openzeppelin/contracts/utils/math/SafeMath.sol\";\nimport \"@openzeppelin/contracts/security/Pausable.sol\";\nimport \"@openzeppelin/contracts/security/ReentrancyGuard.sol\";\n\ninterface IERC20WVW is IERC20 {\n    function decimals() external view returns (uint8);\n}\n\ncontract WVWPreSale is AccessControl, Pausable, ReentrancyGuard {\n    using SafeMath for uint256;\n    IERC20WVW public token;\n    uint256 private tokenPrice;\n\n    address walletTeam;\n    address walletLiquidityExchange;\n\n    mapping(address => uint256) usersMaxSpend;\n    uint256 maxSpend;\n    uint256 minSpend;\n\n    constructor(\n        address _token,\n        address _owner,\n        uint256 _tokenPrice,\n        address _walletTeam,\n        address _walletLiquidityExchange,\n        uint256 _maxSpend,\n        uint256 _minSpend\n    ) {\n        _grantRole(DEFAULT_ADMIN_ROLE, msg.sender);\n        _grantRole(DEFAULT_ADMIN_ROLE, _owner);\n        token = IERC20WVW(_token);\n        tokenPrice = _tokenPrice;\n        walletTeam = _walletTeam;\n        walletLiquidityExchange = _walletLiquidityExchange;\n        maxSpend = _maxSpend;\n        minSpend = _minSpend;\n    }\n\n    function pause() public onlyRole(DEFAULT_ADMIN_ROLE) {\n        _pause();\n    }\n\n    function unpause() public onlyRole(DEFAULT_ADMIN_ROLE) {\n        _unpause();\n    }\n\n    function setTokenPrice(uint256 _newPrice)\n        public\n        onlyRole(DEFAULT_ADMIN_ROLE)\n    {\n        tokenPrice = _newPrice;\n    }\n\n    function buyTokens(uint256 _tokenAmount)\n        public\n        payable\n        whenNotPaused\n        nonReentrant\n    {\n        require(\n            msg.value >= minSpend,\n            \"There is a minimum required to buy tokens.\"\n        );\n        require(\n            (usersMaxSpend[msg.sender] + msg.value) <= maxSpend,\n            \"This wallet already bought the maximum tokens allowed.\"\n        );\n        uint256 formatToken = _tokenAmount * 10**token.decimals();\n        require(token.balanceOf(address(this)) > formatToken, \"Out of stock.\");\n        (bool safeMath, uint256 result) = _tokenAmount.tryMul(tokenPrice);\n        require(safeMath, \"Problem with safe math.\");\n        require(\n            result == msg.value,\n            \"You have to send exactly the price to buy the tokens.\"\n        );\n        usersMaxSpend[msg.sender] = usersMaxSpend[msg.sender] + msg.value;\n        paymentRulesWallets(msg.value);\n        token.transfer(msg.sender, formatToken);\n    }\n\n    function paymentRulesWallets(uint256 _value) private {\n        sendMoneyToWalletTeam(_value);\n        sendMoneyToWalletLiquidityExchange(_value);\n    }\n\n    function sendMoneyToWalletTeam(uint256 value) private {\n        // Send 30% to Team Wallet\n        (bool multSuccess, uint256 multResult) = value.tryMul(3000);\n        require(multSuccess, \"Problem with safe math.\");\n        (bool divSuccess, uint256 divResult) = multResult.tryDiv(10_000);\n        require(divSuccess, \"Problem with safe math.\");\n\n        payable(walletTeam).transfer(divResult);\n    }\n\n    function sendMoneyToWalletLiquidityExchange(uint256 value) private {\n        // Send 70% to Liquidity Wallet\n        (bool multSuccess, uint256 multResult) = value.tryMul(7000);\n        require(multSuccess, \"Problem with safe math.\");\n        (bool divSuccess, uint256 divResult) = multResult.tryDiv(10_000);\n        require(divSuccess, \"Problem with safe math.\");\n\n        payable(walletLiquidityExchange).transfer(divResult);\n    }\n\n    function returnTokensToWallet() public onlyRole(DEFAULT_ADMIN_ROLE) {\n        token.transfer(walletTeam, token.balanceOf(address(this)));\n    }\n\n    function getTokenPrice() public view returns (uint256 _tokenPrice) {\n        return tokenPrice;\n    }\n\n    function getSpentValue(address _address)\n        public\n        view\n        returns (uint256 _spentValue)\n    {\n        return usersMaxSpend[_address];\n    }\n\n    function getMinWei()\n        public\n        view\n        returns (uint256 _minValue)\n    {\n        return minSpend;\n    }\n\n    function getMaxWei()\n        public\n        view\n        returns (uint256 _maxValue)\n    {\n        return maxSpend;\n    }\n    \n}\n",
  "sourcePath": "/home/luigi/wvw/Truffle/contracts/WVWPreSale.sol",
  "compiler": {
    "name": "solc",
    "version": "0.8.17+commit.8df45f5f.Emscripten.clang"
  },
  "schemaVersion": "3.4.11",
  "updatedAt": "2023-01-03T19:16:01.649Z",
  "networkType": "ethereum",
  "devdoc": {
    "kind": "dev",
    "methods": {
      "getRoleAdmin(bytes32)": {
        "details": "Returns the admin role that controls `role`. See {grantRole} and {revokeRole}. To change a role's admin, use {_setRoleAdmin}."
      },
      "grantRole(bytes32,address)": {
        "details": "Grants `role` to `account`. If `account` had not been already granted `role`, emits a {RoleGranted} event. Requirements: - the caller must have ``role``'s admin role. May emit a {RoleGranted} event."
      },
      "hasRole(bytes32,address)": {
        "details": "Returns `true` if `account` has been granted `role`."
      },
      "paused()": {
        "details": "Returns true if the contract is paused, and false otherwise."
      },
      "renounceRole(bytes32,address)": {
        "details": "Revokes `role` from the calling account. Roles are often managed via {grantRole} and {revokeRole}: this function's purpose is to provide a mechanism for accounts to lose their privileges if they are compromised (such as when a trusted device is misplaced). If the calling account had been revoked `role`, emits a {RoleRevoked} event. Requirements: - the caller must be `account`. May emit a {RoleRevoked} event."
      },
      "revokeRole(bytes32,address)": {
        "details": "Revokes `role` from `account`. If `account` had been granted `role`, emits a {RoleRevoked} event. Requirements: - the caller must have ``role``'s admin role. May emit a {RoleRevoked} event."
      },
      "supportsInterface(bytes4)": {
        "details": "See {IERC165-supportsInterface}."
      }
    },
    "version": 1
  },
  "userdoc": {
    "kind": "user",
    "methods": {},
    "version": 1
  }
}