{
  "contractName": "WVWPreSale",
  "abi": [
    {
      "inputs": [
        {
          "internalType": "address",
          "name": "_token",
          "type": "address"
        },
        {
          "internalType": "address",
          "name": "_owner",
          "type": "address"
        },
        {
          "internalType": "uint256",
          "name": "_tokenPrice",
          "type": "uint256"
        },
        {
          "internalType": "address",
          "name": "_walletPreSale",
          "type": "address"
        },
        {
          "internalType": "address",
          "name": "_walletTeam",
          "type": "address"
        },
        {
          "internalType": "address",
          "name": "_walletLiquidityExchange",
          "type": "address"
        },
        {
          "internalType": "uint256",
          "name": "_maxSpend",
          "type": "uint256"
        },
        {
          "internalType": "uint256",
          "name": "_minSpend",
          "type": "uint256"
        }
      ],
      "stateMutability": "nonpayable",
      "type": "constructor"
    },
    {
      "anonymous": false,
      "inputs": [
        {
          "indexed": false,
          "internalType": "address",
          "name": "account",
          "type": "address"
        }
      ],
      "name": "Paused",
      "type": "event"
    },
    {
      "anonymous": false,
      "inputs": [
        {
          "indexed": true,
          "internalType": "bytes32",
          "name": "role",
          "type": "bytes32"
        },
        {
          "indexed": true,
          "internalType": "bytes32",
          "name": "previousAdminRole",
          "type": "bytes32"
        },
        {
          "indexed": true,
          "internalType": "bytes32",
          "name": "newAdminRole",
          "type": "bytes32"
        }
      ],
      "name": "RoleAdminChanged",
      "type": "event"
    },
    {
      "anonymous": false,
      "inputs": [
        {
          "indexed": true,
          "internalType": "bytes32",
          "name": "role",
          "type": "bytes32"
        },
        {
          "indexed": true,
          "internalType": "address",
          "name": "account",
          "type": "address"
        },
        {
          "indexed": true,
          "internalType": "address",
          "name": "sender",
          "type": "address"
        }
      ],
      "name": "RoleGranted",
      "type": "event"
    },
    {
      "anonymous": false,
      "inputs": [
        {
          "indexed": true,
          "internalType": "bytes32",
          "name": "role",
          "type": "bytes32"
        },
        {
          "indexed": true,
          "internalType": "address",
          "name": "account",
          "type": "address"
        },
        {
          "indexed": true,
          "internalType": "address",
          "name": "sender",
          "type": "address"
        }
      ],
      "name": "RoleRevoked",
      "type": "event"
    },
    {
      "anonymous": false,
      "inputs": [
        {
          "indexed": false,
          "internalType": "address",
          "name": "account",
          "type": "address"
        }
      ],
      "name": "Unpaused",
      "type": "event"
    },
    {
      "inputs": [],
      "name": "DEFAULT_ADMIN_ROLE",
      "outputs": [
        {
          "internalType": "bytes32",
          "name": "",
          "type": "bytes32"
        }
      ],
      "stateMutability": "view",
      "type": "function",
      "constant": true
    },
    {
      "inputs": [
        {
          "internalType": "bytes32",
          "name": "role",
          "type": "bytes32"
        }
      ],
      "name": "getRoleAdmin",
      "outputs": [
        {
          "internalType": "bytes32",
          "name": "",
          "type": "bytes32"
        }
      ],
      "stateMutability": "view",
      "type": "function",
      "constant": true
    },
    {
      "inputs": [
        {
          "internalType": "bytes32",
          "name": "role",
          "type": "bytes32"
        },
        {
          "internalType": "address",
          "name": "account",
          "type": "address"
        }
      ],
      "name": "grantRole",
      "outputs": [],
      "stateMutability": "nonpayable",
      "type": "function"
    },
    {
      "inputs": [
        {
          "internalType": "bytes32",
          "name": "role",
          "type": "bytes32"
        },
        {
          "internalType": "address",
          "name": "account",
          "type": "address"
        }
      ],
      "name": "hasRole",
      "outputs": [
        {
          "internalType": "bool",
          "name": "",
          "type": "bool"
        }
      ],
      "stateMutability": "view",
      "type": "function",
      "constant": true
    },
    {
      "inputs": [],
      "name": "paused",
      "outputs": [
        {
          "internalType": "bool",
          "name": "",
          "type": "bool"
        }
      ],
      "stateMutability": "view",
      "type": "function",
      "constant": true
    },
    {
      "inputs": [
        {
          "internalType": "bytes32",
          "name": "role",
          "type": "bytes32"
        },
        {
          "internalType": "address",
          "name": "account",
          "type": "address"
        }
      ],
      "name": "renounceRole",
      "outputs": [],
      "stateMutability": "nonpayable",
      "type": "function"
    },
    {
      "inputs": [
        {
          "internalType": "bytes32",
          "name": "role",
          "type": "bytes32"
        },
        {
          "internalType": "address",
          "name": "account",
          "type": "address"
        }
      ],
      "name": "revokeRole",
      "outputs": [],
      "stateMutability": "nonpayable",
      "type": "function"
    },
    {
      "inputs": [
        {
          "internalType": "bytes4",
          "name": "interfaceId",
          "type": "bytes4"
        }
      ],
      "name": "supportsInterface",
      "outputs": [
        {
          "internalType": "bool",
          "name": "",
          "type": "bool"
        }
      ],
      "stateMutability": "view",
      "type": "function",
      "constant": true
    },
    {
      "inputs": [],
      "name": "token",
      "outputs": [
        {
          "internalType": "contract IERC20WVW",
          "name": "",
          "type": "address"
        }
      ],
      "stateMutability": "view",
      "type": "function",
      "constant": true
    },
    {
      "inputs": [],
      "name": "pause",
      "outputs": [],
      "stateMutability": "nonpayable",
      "type": "function"
    },
    {
      "inputs": [],
      "name": "unpause",
      "outputs": [],
      "stateMutability": "nonpayable",
      "type": "function"
    },
    {
      "inputs": [
        {
          "internalType": "uint256",
          "name": "_newPrice",
          "type": "uint256"
        }
      ],
      "name": "setTokenPrice",
      "outputs": [],
      "stateMutability": "nonpayable",
      "type": "function"
    },
    {
      "inputs": [
        {
          "internalType": "uint256",
          "name": "_tokenAmount",
          "type": "uint256"
        }
      ],
      "name": "buyTokens",
      "outputs": [],
      "stateMutability": "payable",
      "type": "function",
      "payable": true
    },
    {
      "inputs": [],
      "name": "getTokenPrice",
      "outputs": [
        {
          "internalType": "uint256",
          "name": "_tokenPrice",
          "type": "uint256"
        }
      ],
      "stateMutability": "view",
      "type": "function",
      "constant": true
    },
    {
      "inputs": [
        {
          "internalType": "address",
          "name": "_address",
          "type": "address"
        }
      ],
      "name": "getSpentValue",
      "outputs": [
        {
          "internalType": "uint256",
          "name": "_spentValue",
          "type": "uint256"
        }
      ],
      "stateMutability": "view",
      "type": "function",
      "constant": true
    },
    {
      "inputs": [],
      "name": "getMinWei",
      "outputs": [
        {
          "internalType": "uint256",
          "name": "_minValue",
          "type": "uint256"
        }
      ],
      "stateMutability": "view",
      "type": "function",
      "constant": true
    },
    {
      "inputs": [],
      "name": "getMaxWei",
      "outputs": [
        {
          "internalType": "uint256",
          "name": "_maxValue",
          "type": "uint256"
        }
      ],
      "stateMutability": "view",
      "type": "function",
      "constant": true
    }
  ],
  "bytecode": "0x60806040523480156200001157600080fd5b50604051620027a2380380620027a283398181016040528101906200003791906200039e565b6000600160006101000a81548160ff02191690831515021790555060016002819055506200006f6000801b886200019660201b60201c565b87600360006101000a81548173ffffffffffffffffffffffffffffffffffffffff021916908373ffffffffffffffffffffffffffffffffffffffff16021790555084600560006101000a81548173ffffffffffffffffffffffffffffffffffffffff021916908373ffffffffffffffffffffffffffffffffffffffff1602179055508560048190555083600660006101000a81548173ffffffffffffffffffffffffffffffffffffffff021916908373ffffffffffffffffffffffffffffffffffffffff16021790555082600760006101000a81548173ffffffffffffffffffffffffffffffffffffffff021916908373ffffffffffffffffffffffffffffffffffffffff1602179055508160098190555080600a81905550505050505050505062000467565b620001a882826200028760201b60201c565b6200028357600160008084815260200190815260200160002060000160008373ffffffffffffffffffffffffffffffffffffffff1673ffffffffffffffffffffffffffffffffffffffff16815260200190815260200160002060006101000a81548160ff02191690831515021790555062000228620002f160201b60201c565b73ffffffffffffffffffffffffffffffffffffffff168173ffffffffffffffffffffffffffffffffffffffff16837f2f8788117e7eff1d82e926ec794901d17c78024a50270940304540a733656f0d60405160405180910390a45b5050565b600080600084815260200190815260200160002060000160008373ffffffffffffffffffffffffffffffffffffffff1673ffffffffffffffffffffffffffffffffffffffff16815260200190815260200160002060009054906101000a900460ff16905092915050565b600033905090565b600080fd5b600073ffffffffffffffffffffffffffffffffffffffff82169050919050565b60006200032b82620002fe565b9050919050565b6200033d816200031e565b81146200034957600080fd5b50565b6000815190506200035d8162000332565b92915050565b6000819050919050565b620003788162000363565b81146200038457600080fd5b50565b60008151905062000398816200036d565b92915050565b600080600080600080600080610100898b031215620003c257620003c1620002f9565b5b6000620003d28b828c016200034c565b9850506020620003e58b828c016200034c565b9750506040620003f88b828c0162000387565b96505060606200040b8b828c016200034c565b95505060806200041e8b828c016200034c565b94505060a0620004318b828c016200034c565b93505060c0620004448b828c0162000387565b92505060e0620004578b828c0162000387565b9150509295985092959890939650565b61232b80620004776000396000f3fe6080604052600436106100fe5760003560e01c80635c975abb11610095578063a217fddf11610064578063a217fddf14610300578063c15b21011461032b578063d341fd5d14610356578063d547741f14610393578063fc0c546a146103bc576100fe565b80635c975abb146102585780636a61e5fc146102835780638456cb59146102ac57806391d14854146102c3576100fe565b806336568abe116100d157806336568abe146101c25780633f4ba83a146101eb5780634b94f50e146102025780635a50c0411461022d576100fe565b806301ffc9a714610103578063248a9ca3146101405780632f2ff15d1461017d5780633610724e146101a6575b600080fd5b34801561010f57600080fd5b5061012a60048036038101906101259190611568565b6103e7565b60405161013791906115b0565b60405180910390f35b34801561014c57600080fd5b5061016760048036038101906101629190611601565b610461565b604051610174919061163d565b60405180910390f35b34801561018957600080fd5b506101a4600480360381019061019f91906116b6565b610480565b005b6101c060048036038101906101bb919061172c565b6104a1565b005b3480156101ce57600080fd5b506101e960048036038101906101e491906116b6565b610938565b005b3480156101f757600080fd5b506102006109bb565b005b34801561020e57600080fd5b506102176109d3565b6040516102249190611768565b60405180910390f35b34801561023957600080fd5b506102426109dd565b60405161024f9190611768565b60405180910390f35b34801561026457600080fd5b5061026d6109e7565b60405161027a91906115b0565b60405180910390f35b34801561028f57600080fd5b506102aa60048036038101906102a5919061172c565b6109fe565b005b3480156102b857600080fd5b506102c1610a16565b005b3480156102cf57600080fd5b506102ea60048036038101906102e591906116b6565b610a2e565b6040516102f791906115b0565b60405180910390f35b34801561030c57600080fd5b50610315610a98565b604051610322919061163d565b60405180910390f35b34801561033757600080fd5b50610340610a9f565b60405161034d9190611768565b60405180910390f35b34801561036257600080fd5b5061037d60048036038101906103789190611783565b610aa9565b60405161038a9190611768565b60405180910390f35b34801561039f57600080fd5b506103ba60048036038101906103b591906116b6565b610af2565b005b3480156103c857600080fd5b506103d1610b13565b6040516103de919061180f565b60405180910390f35b60007f7965db0b000000000000000000000000000000000000000000000000000000007bffffffffffffffffffffffffffffffffffffffffffffffffffffffff1916827bffffffffffffffffffffffffffffffffffffffffffffffffffffffff1916148061045a575061045982610b39565b5b9050919050565b6000806000838152602001908152602001600020600101549050919050565b61048982610461565b61049281610ba3565b61049c8383610bb7565b505050565b6104a9610c97565b6104b1610ce1565b600a543410156104f6576040517f08c379a00000000000000000000000000000000000000000000000000000000081526004016104ed906118ad565b60405180910390fd5b60095434600860003373ffffffffffffffffffffffffffffffffffffffff1673ffffffffffffffffffffffffffffffffffffffff1681526020019081526020016000205461054491906118fc565b1115610585576040517f08c379a000000000000000000000000000000000000000000000000000000000815260040161057c906119a2565b60405180910390fd5b6000600360009054906101000a900473ffffffffffffffffffffffffffffffffffffffff1673ffffffffffffffffffffffffffffffffffffffff1663313ce5676040518163ffffffff1660e01b8152600401602060405180830381865afa1580156105f4573d6000803e3d6000fd5b505050506040513d601f19601f8201168201806040525081019061061891906119fb565b600a6106249190611b5b565b8261062f9190611ba6565b905080600360009054906101000a900473ffffffffffffffffffffffffffffffffffffffff1673ffffffffffffffffffffffffffffffffffffffff166370a08231600560009054906101000a900473ffffffffffffffffffffffffffffffffffffffff166040518263ffffffff1660e01b81526004016106af9190611bf7565b602060405180830381865afa1580156106cc573d6000803e3d6000fd5b505050506040513d601f19601f820116820180604052508101906106f09190611c27565b11610730576040517f08c379a000000000000000000000000000000000000000000000000000000000815260040161072790611ca0565b60405180910390fd5b60008061074860045485610d2e90919063ffffffff16565b915091508161078c576040517f08c379a000000000000000000000000000000000000000000000000000000000815260040161078390611d0c565b60405180910390fd5b3481146107ce576040517f08c379a00000000000000000000000000000000000000000000000000000000081526004016107c590611d9e565b60405180910390fd5b34600860003373ffffffffffffffffffffffffffffffffffffffff1673ffffffffffffffffffffffffffffffffffffffff1681526020019081526020016000205461081991906118fc565b600860003373ffffffffffffffffffffffffffffffffffffffff1673ffffffffffffffffffffffffffffffffffffffff1681526020019081526020016000208190555061086534610d81565b600360009054906101000a900473ffffffffffffffffffffffffffffffffffffffff1673ffffffffffffffffffffffffffffffffffffffff166323b872dd600560009054906101000a900473ffffffffffffffffffffffffffffffffffffffff1633866040518463ffffffff1660e01b81526004016108e693929190611dbe565b6020604051808303816000875af1158015610905573d6000803e3d6000fd5b505050506040513d601f19601f820116820180604052508101906109299190611e21565b50505050610935610d96565b50565b610940610da0565b73ffffffffffffffffffffffffffffffffffffffff168173ffffffffffffffffffffffffffffffffffffffff16146109ad576040517f08c379a00000000000000000000000000000000000000000000000000000000081526004016109a490611ec0565b60405180910390fd5b6109b78282610da8565b5050565b6000801b6109c881610ba3565b6109d0610e89565b50565b6000600454905090565b6000600a54905090565b6000600160009054906101000a900460ff16905090565b6000801b610a0b81610ba3565b816004819055505050565b6000801b610a2381610ba3565b610a2b610eec565b50565b600080600084815260200190815260200160002060000160008373ffffffffffffffffffffffffffffffffffffffff1673ffffffffffffffffffffffffffffffffffffffff16815260200190815260200160002060009054906101000a900460ff16905092915050565b6000801b81565b6000600954905090565b6000600860008373ffffffffffffffffffffffffffffffffffffffff1673ffffffffffffffffffffffffffffffffffffffff168152602001908152602001600020549050919050565b610afb82610461565b610b0481610ba3565b610b0e8383610da8565b505050565b600360009054906101000a900473ffffffffffffffffffffffffffffffffffffffff1681565b60007f01ffc9a7000000000000000000000000000000000000000000000000000000007bffffffffffffffffffffffffffffffffffffffffffffffffffffffff1916827bffffffffffffffffffffffffffffffffffffffffffffffffffffffff1916149050919050565b610bb481610baf610da0565b610f4e565b50565b610bc18282610a2e565b610c9357600160008084815260200190815260200160002060000160008373ffffffffffffffffffffffffffffffffffffffff1673ffffffffffffffffffffffffffffffffffffffff16815260200190815260200160002060006101000a81548160ff021916908315150217905550610c38610da0565b73ffffffffffffffffffffffffffffffffffffffff168173ffffffffffffffffffffffffffffffffffffffff16837f2f8788117e7eff1d82e926ec794901d17c78024a50270940304540a733656f0d60405160405180910390a45b5050565b610c9f6109e7565b15610cdf576040517f08c379a0000000000000000000000000000000000000000000000000000000008152600401610cd690611f2c565b60405180910390fd5b565b6002805403610d25576040517f08c379a0000000000000000000000000000000000000000000000000000000008152600401610d1c90611f98565b60405180910390fd5b60028081905550565b60008060008403610d46576001600091509150610d7a565b6000838502905083858281610d5e57610d5d611fb8565b5b0414610d71576000809250925050610d7a565b60018192509250505b9250929050565b610d8a81610fd3565b610d93816110fb565b50565b6001600281905550565b600033905090565b610db28282610a2e565b15610e8557600080600084815260200190815260200160002060000160008373ffffffffffffffffffffffffffffffffffffffff1673ffffffffffffffffffffffffffffffffffffffff16815260200190815260200160002060006101000a81548160ff021916908315150217905550610e2a610da0565b73ffffffffffffffffffffffffffffffffffffffff168173ffffffffffffffffffffffffffffffffffffffff16837ff6391f5c32d9c69d2a47ea670b442974b53935d1edc7fd64eb21e047a839171b60405160405180910390a45b5050565b610e91611223565b6000600160006101000a81548160ff0219169083151502179055507f5db9ee0a495bf2e6ff9c91a7834c1ba4fdd244a5e8aa4e537bd38aeae4b073aa610ed5610da0565b604051610ee29190611bf7565b60405180910390a1565b610ef4610c97565b60018060006101000a81548160ff0219169083151502179055507f62e78cea01bee320cd4e420270b5ea74000d11b0c9f74754ebdbfc544b05a258610f37610da0565b604051610f449190611bf7565b60405180910390a1565b610f588282610a2e565b610fcf57610f658161126c565b610f738360001c6020611299565b604051602001610f849291906120f0565b6040516020818303038152906040526040517f08c379a0000000000000000000000000000000000000000000000000000000008152600401610fc69190612174565b60405180910390fd5b5050565b600080610feb610bb884610d2e90919063ffffffff16565b915091508161102f576040517f08c379a000000000000000000000000000000000000000000000000000000000815260040161102690611d0c565b60405180910390fd5b600080611047612710846114d590919063ffffffff16565b915091508161108b576040517f08c379a000000000000000000000000000000000000000000000000000000000815260040161108290611d0c565b60405180910390fd5b600660009054906101000a900473ffffffffffffffffffffffffffffffffffffffff1673ffffffffffffffffffffffffffffffffffffffff166108fc829081150290604051600060405180830381858888f193505050501580156110f3573d6000803e3d6000fd5b505050505050565b600080611113611b5884610d2e90919063ffffffff16565b9150915081611157576040517f08c379a000000000000000000000000000000000000000000000000000000000815260040161114e90611d0c565b60405180910390fd5b60008061116f612710846114d590919063ffffffff16565b91509150816111b3576040517f08c379a00000000000000000000000000000000000000000000000000000000081526004016111aa90611d0c565b60405180910390fd5b600760009054906101000a900473ffffffffffffffffffffffffffffffffffffffff1673ffffffffffffffffffffffffffffffffffffffff166108fc829081150290604051600060405180830381858888f1935050505015801561121b573d6000803e3d6000fd5b505050505050565b61122b6109e7565b61126a576040517f08c379a0000000000000000000000000000000000000000000000000000000008152600401611261906121e2565b60405180910390fd5b565b60606112928273ffffffffffffffffffffffffffffffffffffffff16601460ff16611299565b9050919050565b6060600060028360026112ac9190611ba6565b6112b691906118fc565b67ffffffffffffffff8111156112cf576112ce612202565b5b6040519080825280601f01601f1916602001820160405280156113015781602001600182028036833780820191505090505b5090507f30000000000000000000000000000000000000000000000000000000000000008160008151811061133957611338612231565b5b60200101907effffffffffffffffffffffffffffffffffffffffffffffffffffffffffffff1916908160001a9053507f78000000000000000000000000000000000000000000000000000000000000008160018151811061139d5761139c612231565b5b60200101907effffffffffffffffffffffffffffffffffffffffffffffffffffffffffffff1916908160001a905350600060018460026113dd9190611ba6565b6113e791906118fc565b90505b6001811115611487577f3031323334353637383961626364656600000000000000000000000000000000600f86166010811061142957611428612231565b5b1a60f81b8282815181106114405761143f612231565b5b60200101907effffffffffffffffffffffffffffffffffffffffffffffffffffffffffffff1916908160001a905350600485901c94508061148090612260565b90506113ea565b50600084146114cb576040517f08c379a00000000000000000000000000000000000000000000000000000000081526004016114c2906122d5565b60405180910390fd5b8091505092915050565b600080600083036114ec5760008091509150611504565b60018385816114fe576114fd611fb8565b5b04915091505b9250929050565b600080fd5b60007fffffffff0000000000000000000000000000000000000000000000000000000082169050919050565b61154581611510565b811461155057600080fd5b50565b6000813590506115628161153c565b92915050565b60006020828403121561157e5761157d61150b565b5b600061158c84828501611553565b91505092915050565b60008115159050919050565b6115aa81611595565b82525050565b60006020820190506115c560008301846115a1565b92915050565b6000819050919050565b6115de816115cb565b81146115e957600080fd5b50565b6000813590506115fb816115d5565b92915050565b6000602082840312156116175761161661150b565b5b6000611625848285016115ec565b91505092915050565b611637816115cb565b82525050565b6000602082019050611652600083018461162e565b92915050565b600073ffffffffffffffffffffffffffffffffffffffff82169050919050565b600061168382611658565b9050919050565b61169381611678565b811461169e57600080fd5b50565b6000813590506116b08161168a565b92915050565b600080604083850312156116cd576116cc61150b565b5b60006116db858286016115ec565b92505060206116ec858286016116a1565b9150509250929050565b6000819050919050565b611709816116f6565b811461171457600080fd5b50565b60008135905061172681611700565b92915050565b6000602082840312156117425761174161150b565b5b600061175084828501611717565b91505092915050565b611762816116f6565b82525050565b600060208201905061177d6000830184611759565b92915050565b6000602082840312156117995761179861150b565b5b60006117a7848285016116a1565b91505092915050565b6000819050919050565b60006117d56117d06117cb84611658565b6117b0565b611658565b9050919050565b60006117e7826117ba565b9050919050565b60006117f9826117dc565b9050919050565b611809816117ee565b82525050565b60006020820190506118246000830184611800565b92915050565b600082825260208201905092915050565b7f54686572652069732061206d696e696d756d20726571756972656420746f206260008201527f757920746f6b656e732e00000000000000000000000000000000000000000000602082015250565b6000611897602a8361182a565b91506118a28261183b565b604082019050919050565b600060208201905081810360008301526118c68161188a565b9050919050565b7f4e487b7100000000000000000000000000000000000000000000000000000000600052601160045260246000fd5b6000611907826116f6565b9150611912836116f6565b925082820190508082111561192a576119296118cd565b5b92915050565b7f546869732077616c6c657420616c726561647920626f7567687420746865206d60008201527f6178696d756d20746f6b656e7320616c6c6f7765642e00000000000000000000602082015250565b600061198c60368361182a565b915061199782611930565b604082019050919050565b600060208201905081810360008301526119bb8161197f565b9050919050565b600060ff82169050919050565b6119d8816119c2565b81146119e357600080fd5b50565b6000815190506119f5816119cf565b92915050565b600060208284031215611a1157611a1061150b565b5b6000611a1f848285016119e6565b91505092915050565b60008160011c9050919050565b6000808291508390505b6001851115611a7f57808604811115611a5b57611a5a6118cd565b5b6001851615611a6a5780820291505b8081029050611a7885611a28565b9450611a3f565b94509492505050565b600082611a985760019050611b54565b81611aa65760009050611b54565b8160018114611abc5760028114611ac657611af5565b6001915050611b54565b60ff841115611ad857611ad76118cd565b5b8360020a915084821115611aef57611aee6118cd565b5b50611b54565b5060208310610133831016604e8410600b8410161715611b2a5782820a905083811115611b2557611b246118cd565b5b611b54565b611b378484846001611a35565b92509050818404811115611b4e57611b4d6118cd565b5b81810290505b9392505050565b6000611b66826116f6565b9150611b71836119c2565b9250611b9e7fffffffffffffffffffffffffffffffffffffffffffffffffffffffffffffffff8484611a88565b905092915050565b6000611bb1826116f6565b9150611bbc836116f6565b9250828202611bca816116f6565b91508282048414831517611be157611be06118cd565b5b5092915050565b611bf181611678565b82525050565b6000602082019050611c0c6000830184611be8565b92915050565b600081519050611c2181611700565b92915050565b600060208284031215611c3d57611c3c61150b565b5b6000611c4b84828501611c12565b91505092915050565b7f4f7574206f662073746f636b2e00000000000000000000000000000000000000600082015250565b6000611c8a600d8361182a565b9150611c9582611c54565b602082019050919050565b60006020820190508181036000830152611cb981611c7d565b9050919050565b7f50726f626c656d20776974682073616665206d6174682e000000000000000000600082015250565b6000611cf660178361182a565b9150611d0182611cc0565b602082019050919050565b60006020820190508181036000830152611d2581611ce9565b9050919050565b7f596f75206861766520746f2073656e642065786163746c79207468652070726960008201527f636520746f206275792074686520746f6b656e732e0000000000000000000000602082015250565b6000611d8860358361182a565b9150611d9382611d2c565b604082019050919050565b60006020820190508181036000830152611db781611d7b565b9050919050565b6000606082019050611dd36000830186611be8565b611de06020830185611be8565b611ded6040830184611759565b949350505050565b611dfe81611595565b8114611e0957600080fd5b50565b600081519050611e1b81611df5565b92915050565b600060208284031215611e3757611e3661150b565b5b6000611e4584828501611e0c565b91505092915050565b7f416363657373436f6e74726f6c3a2063616e206f6e6c792072656e6f756e636560008201527f20726f6c657320666f722073656c660000000000000000000000000000000000602082015250565b6000611eaa602f8361182a565b9150611eb582611e4e565b604082019050919050565b60006020820190508181036000830152611ed981611e9d565b9050919050565b7f5061757361626c653a2070617573656400000000000000000000000000000000600082015250565b6000611f1660108361182a565b9150611f2182611ee0565b602082019050919050565b60006020820190508181036000830152611f4581611f09565b9050919050565b7f5265656e7472616e637947756172643a207265656e7472616e742063616c6c00600082015250565b6000611f82601f8361182a565b9150611f8d82611f4c565b602082019050919050565b60006020820190508181036000830152611fb181611f75565b9050919050565b7f4e487b7100000000000000000000000000000000000000000000000000000000600052601260045260246000fd5b600081905092915050565b7f416363657373436f6e74726f6c3a206163636f756e7420000000000000000000600082015250565b6000612028601783611fe7565b915061203382611ff2565b601782019050919050565b600081519050919050565b60005b8381101561206757808201518184015260208101905061204c565b60008484015250505050565b600061207e8261203e565b6120888185611fe7565b9350612098818560208601612049565b80840191505092915050565b7f206973206d697373696e6720726f6c6520000000000000000000000000000000600082015250565b60006120da601183611fe7565b91506120e5826120a4565b601182019050919050565b60006120fb8261201b565b91506121078285612073565b9150612112826120cd565b915061211e8284612073565b91508190509392505050565b6000601f19601f8301169050919050565b60006121468261203e565b612150818561182a565b9350612160818560208601612049565b6121698161212a565b840191505092915050565b6000602082019050818103600083015261218e818461213b565b905092915050565b7f5061757361626c653a206e6f7420706175736564000000000000000000000000600082015250565b60006121cc60148361182a565b91506121d782612196565b602082019050919050565b600060208201905081810360008301526121fb816121bf565b9050919050565b7f4e487b7100000000000000000000000000000000000000000000000000000000600052604160045260246000fd5b7f4e487b7100000000000000000000000000000000000000000000000000000000600052603260045260246000fd5b600061226b826116f6565b91506000820361227e5761227d6118cd565b5b600182039050919050565b7f537472696e67733a20686578206c656e67746820696e73756666696369656e74600082015250565b60006122bf60208361182a565b91506122ca82612289565b602082019050919050565b600060208201905081810360008301526122ee816122b2565b905091905056fea26469706673582212208f1f05b64f70c990353e0e2cf1aa8d55c204adea38794e40e474141e0b44fb5864736f6c63430008110033",
  "immutableReferences": {},
  "source": "// SPDX-License-Identifier: MIT\npragma solidity ^0.8.9;\n\nimport \"@openzeppelin/contracts/access/AccessControl.sol\";\nimport \"@openzeppelin/contracts/token/ERC20/IERC20.sol\";\nimport \"@openzeppelin/contracts/utils/math/SafeMath.sol\";\nimport \"@openzeppelin/contracts/security/Pausable.sol\";\nimport \"@openzeppelin/contracts/security/ReentrancyGuard.sol\";\n\ninterface IERC20WVW is IERC20 {\n    function decimals() external view returns (uint8);\n}\n\ncontract WVWPreSale is AccessControl, Pausable, ReentrancyGuard {\n    using SafeMath for uint256;\n    IERC20WVW public token;\n    uint256 private tokenPrice;\n\n    address walletPreSale;\n    address walletTeam;\n    address walletLiquidityExchange;\n\n    mapping(address => uint256) usersMaxSpend;\n    uint256 maxSpend;\n    uint256 minSpend;\n\n    constructor(\n        address _token,\n        address _owner,\n        uint256 _tokenPrice,\n        address _walletPreSale,\n        address _walletTeam,\n        address _walletLiquidityExchange,\n        uint256 _maxSpend,\n        uint256 _minSpend\n    ) {\n        _grantRole(DEFAULT_ADMIN_ROLE, _owner);\n        token = IERC20WVW(_token);\n        walletPreSale = _walletPreSale;\n        tokenPrice = _tokenPrice;\n        walletTeam = _walletTeam;\n        walletLiquidityExchange = _walletLiquidityExchange;\n        maxSpend = _maxSpend;\n        minSpend = _minSpend;\n    }\n\n    function pause() public onlyRole(DEFAULT_ADMIN_ROLE) {\n        _pause();\n    }\n\n    function unpause() public onlyRole(DEFAULT_ADMIN_ROLE) {\n        _unpause();\n    }\n\n    function setTokenPrice(uint256 _newPrice)\n        public\n        onlyRole(DEFAULT_ADMIN_ROLE)\n    {\n        tokenPrice = _newPrice;\n    }\n\n    function buyTokens(uint256 _tokenAmount)\n        public\n        payable\n        whenNotPaused\n        nonReentrant\n    {\n        require(\n            msg.value >= minSpend,\n            \"There is a minimum required to buy tokens.\"\n        );\n        require(\n            (usersMaxSpend[msg.sender] + msg.value) <= maxSpend,\n            \"This wallet already bought the maximum tokens allowed.\"\n        );\n        uint256 formatToken = _tokenAmount * 10**token.decimals();\n        require(token.balanceOf(walletPreSale) > formatToken, \"Out of stock.\");\n        (bool safeMath, uint256 result) = _tokenAmount.tryMul(tokenPrice);\n        require(safeMath, \"Problem with safe math.\");\n        require(\n            result == msg.value,\n            \"You have to send exactly the price to buy the tokens.\"\n        );\n        usersMaxSpend[msg.sender] = usersMaxSpend[msg.sender] + msg.value;\n        paymentRulesWallets(msg.value);\n        token.transferFrom(walletPreSale, msg.sender, formatToken);\n    }\n\n    function paymentRulesWallets(uint256 _value) private {\n        sendMoneyToWalletTeam(_value);\n        sendMoneyToWalletLiquidityExchange(_value);\n    }   \n\n    function sendMoneyToWalletTeam(uint256 value) private {\n        // Send 30% to Team Wallet\n        (bool multSuccess, uint256 multResult) = value.tryMul(3000);\n        require(multSuccess, \"Problem with safe math.\");\n        (bool divSuccess, uint256 divResult) = multResult.tryDiv(10_000);\n        require(divSuccess, \"Problem with safe math.\");\n\n        payable(walletTeam).transfer(divResult);\n    }\n\n    function sendMoneyToWalletLiquidityExchange(uint256 value) private {\n        // Send 70% to Liquidity Wallet\n        (bool multSuccess, uint256 multResult) = value.tryMul(7000);\n        require(multSuccess, \"Problem with safe math.\");\n        (bool divSuccess, uint256 divResult) = multResult.tryDiv(10_000);\n        require(divSuccess, \"Problem with safe math.\");\n\n        payable(walletLiquidityExchange).transfer(divResult);\n    }\n\n    function getTokenPrice() public view returns (uint256 _tokenPrice) {\n        return tokenPrice;\n    }\n\n    function getSpentValue(address _address)\n        public\n        view\n        returns (uint256 _spentValue)\n    {\n        return usersMaxSpend[_address];\n    }\n\n    function getMinWei()\n        public\n        view\n        returns (uint256 _minValue)\n    {\n        return minSpend;\n    }\n\n    function getMaxWei()\n        public\n        view\n        returns (uint256 _maxValue)\n    {\n        return maxSpend;\n    }\n    \n}\n",
  "sourcePath": "/home/luigi/wvw/Truffle/contracts/WVWPreSale.sol",
  "compiler": {
    "name": "solc",
    "version": "0.8.17+commit.8df45f5f.Emscripten.clang"
  },
  "schemaVersion": "3.4.11",
  "updatedAt": "2023-01-04T17:07:30.018Z",
  "networkType": "ethereum",
  "devdoc": {
    "kind": "dev",
    "methods": {
      "getRoleAdmin(bytes32)": {
        "details": "Returns the admin role that controls `role`. See {grantRole} and {revokeRole}. To change a role's admin, use {_setRoleAdmin}."
      },
      "grantRole(bytes32,address)": {
        "details": "Grants `role` to `account`. If `account` had not been already granted `role`, emits a {RoleGranted} event. Requirements: - the caller must have ``role``'s admin role. May emit a {RoleGranted} event."
      },
      "hasRole(bytes32,address)": {
        "details": "Returns `true` if `account` has been granted `role`."
      },
      "paused()": {
        "details": "Returns true if the contract is paused, and false otherwise."
      },
      "renounceRole(bytes32,address)": {
        "details": "Revokes `role` from the calling account. Roles are often managed via {grantRole} and {revokeRole}: this function's purpose is to provide a mechanism for accounts to lose their privileges if they are compromised (such as when a trusted device is misplaced). If the calling account had been revoked `role`, emits a {RoleRevoked} event. Requirements: - the caller must be `account`. May emit a {RoleRevoked} event."
      },
      "revokeRole(bytes32,address)": {
        "details": "Revokes `role` from `account`. If `account` had been granted `role`, emits a {RoleRevoked} event. Requirements: - the caller must have ``role``'s admin role. May emit a {RoleRevoked} event."
      },
      "supportsInterface(bytes4)": {
        "details": "See {IERC165-supportsInterface}."
      }
    },
    "version": 1
  },
  "userdoc": {
    "kind": "user",
    "methods": {},
    "version": 1
  }
}